{
  "_format": "hh-sol-artifact-1",
  "contractName": "MyEpicNFT",
  "sourceName": "contracts/MyEpicNFT.sol",
  "abi": [
    {
      "inputs": [],
      "stateMutability": "payable",
      "type": "constructor"
    },
    {
      "anonymous": false,
      "inputs": [
        {
          "indexed": true,
          "internalType": "address",
          "name": "owner",
          "type": "address"
        },
        {
          "indexed": true,
          "internalType": "address",
          "name": "approved",
          "type": "address"
        },
        {
          "indexed": true,
          "internalType": "uint256",
          "name": "tokenId",
          "type": "uint256"
        }
      ],
      "name": "Approval",
      "type": "event"
    },
    {
      "anonymous": false,
      "inputs": [
        {
          "indexed": true,
          "internalType": "address",
          "name": "owner",
          "type": "address"
        },
        {
          "indexed": true,
          "internalType": "address",
          "name": "operator",
          "type": "address"
        },
        {
          "indexed": false,
          "internalType": "bool",
          "name": "approved",
          "type": "bool"
        }
      ],
      "name": "ApprovalForAll",
      "type": "event"
    },
    {
      "anonymous": false,
      "inputs": [
        {
          "indexed": false,
          "internalType": "address",
          "name": "sender",
          "type": "address"
        },
        {
          "indexed": false,
          "internalType": "uint256",
          "name": "tokenId",
          "type": "uint256"
        }
      ],
      "name": "NewEpicNFTMinted",
      "type": "event"
    },
    {
      "anonymous": false,
      "inputs": [
        {
          "indexed": true,
          "internalType": "address",
          "name": "from",
          "type": "address"
        },
        {
          "indexed": true,
          "internalType": "address",
          "name": "to",
          "type": "address"
        },
        {
          "indexed": true,
          "internalType": "uint256",
          "name": "tokenId",
          "type": "uint256"
        }
      ],
      "name": "Transfer",
      "type": "event"
    },
    {
      "inputs": [
        {
          "internalType": "address",
          "name": "to",
          "type": "address"
        },
        {
          "internalType": "uint256",
          "name": "tokenId",
          "type": "uint256"
        }
      ],
      "name": "approve",
      "outputs": [],
      "stateMutability": "nonpayable",
      "type": "function"
    },
    {
      "inputs": [
        {
          "internalType": "address",
          "name": "owner",
          "type": "address"
        }
      ],
      "name": "balanceOf",
      "outputs": [
        {
          "internalType": "uint256",
          "name": "",
          "type": "uint256"
        }
      ],
      "stateMutability": "view",
      "type": "function"
    },
    {
      "inputs": [
        {
          "internalType": "string",
          "name": "color",
          "type": "string"
        },
        {
          "internalType": "string",
          "name": "backgroundColor",
          "type": "string"
        },
        {
          "internalType": "string",
          "name": "tokenId",
          "type": "string"
        },
        {
          "internalType": "string",
          "name": "nftName",
          "type": "string"
        },
        {
          "internalType": "string",
          "name": "image",
          "type": "string"
        }
      ],
      "name": "buildJson",
      "outputs": [
        {
          "internalType": "string",
          "name": "",
          "type": "string"
        }
      ],
      "stateMutability": "view",
      "type": "function"
    },
    {
      "inputs": [
        {
          "internalType": "string",
          "name": "color",
          "type": "string"
        },
        {
          "internalType": "string",
          "name": "backgroundColor",
          "type": "string"
        },
        {
          "internalType": "string",
          "name": "tokenId",
          "type": "string"
        },
        {
          "internalType": "string",
          "name": "nftName",
          "type": "string"
        }
      ],
      "name": "buildSvg",
      "outputs": [
        {
          "internalType": "string",
          "name": "",
          "type": "string"
        }
      ],
      "stateMutability": "view",
      "type": "function"
    },
    {
      "inputs": [
        {
          "internalType": "uint256",
          "name": "tokenId",
          "type": "uint256"
        }
      ],
      "name": "getApproved",
      "outputs": [
        {
          "internalType": "address",
          "name": "",
          "type": "address"
        }
      ],
      "stateMutability": "view",
      "type": "function"
    },
    {
      "inputs": [],
      "name": "getMintedByUser",
      "outputs": [
        {
          "internalType": "uint256",
          "name": "",
          "type": "uint256"
        }
      ],
      "stateMutability": "view",
      "type": "function"
    },
    {
      "inputs": [
        {
          "internalType": "address",
          "name": "owner",
          "type": "address"
        },
        {
          "internalType": "address",
          "name": "operator",
          "type": "address"
        }
      ],
      "name": "isApprovedForAll",
      "outputs": [
        {
          "internalType": "bool",
          "name": "",
          "type": "bool"
        }
      ],
      "stateMutability": "view",
      "type": "function"
    },
    {
      "inputs": [
        {
          "internalType": "string",
          "name": "_nftName",
          "type": "string"
        }
      ],
      "name": "makeAnEpicNFT",
      "outputs": [],
      "stateMutability": "nonpayable",
      "type": "function"
    },
    {
      "inputs": [],
      "name": "name",
      "outputs": [
        {
          "internalType": "string",
          "name": "",
          "type": "string"
        }
      ],
      "stateMutability": "view",
      "type": "function"
    },
    {
      "inputs": [
        {
          "internalType": "uint256",
          "name": "tokenId",
          "type": "uint256"
        }
      ],
      "name": "ownerOf",
      "outputs": [
        {
          "internalType": "address",
          "name": "",
          "type": "address"
        }
      ],
      "stateMutability": "view",
      "type": "function"
    },
    {
      "inputs": [
        {
          "internalType": "address",
          "name": "from",
          "type": "address"
        },
        {
          "internalType": "address",
          "name": "to",
          "type": "address"
        },
        {
          "internalType": "uint256",
          "name": "tokenId",
          "type": "uint256"
        }
      ],
      "name": "safeTransferFrom",
      "outputs": [],
      "stateMutability": "nonpayable",
      "type": "function"
    },
    {
      "inputs": [
        {
          "internalType": "address",
          "name": "from",
          "type": "address"
        },
        {
          "internalType": "address",
          "name": "to",
          "type": "address"
        },
        {
          "internalType": "uint256",
          "name": "tokenId",
          "type": "uint256"
        },
        {
          "internalType": "bytes",
          "name": "data",
          "type": "bytes"
        }
      ],
      "name": "safeTransferFrom",
      "outputs": [],
      "stateMutability": "nonpayable",
      "type": "function"
    },
    {
      "inputs": [
        {
          "internalType": "address",
          "name": "operator",
          "type": "address"
        },
        {
          "internalType": "bool",
          "name": "approved",
          "type": "bool"
        }
      ],
      "name": "setApprovalForAll",
      "outputs": [],
      "stateMutability": "nonpayable",
      "type": "function"
    },
    {
      "inputs": [
        {
          "internalType": "bytes4",
          "name": "interfaceId",
          "type": "bytes4"
        }
      ],
      "name": "supportsInterface",
      "outputs": [
        {
          "internalType": "bool",
          "name": "",
          "type": "bool"
        }
      ],
      "stateMutability": "view",
      "type": "function"
    },
    {
      "inputs": [],
      "name": "symbol",
      "outputs": [
        {
          "internalType": "string",
          "name": "",
          "type": "string"
        }
      ],
      "stateMutability": "view",
      "type": "function"
    },
    {
      "inputs": [
        {
          "internalType": "uint256",
          "name": "tokenId",
          "type": "uint256"
        }
      ],
      "name": "tokenURI",
      "outputs": [
        {
          "internalType": "string",
          "name": "",
          "type": "string"
        }
      ],
      "stateMutability": "view",
      "type": "function"
    },
    {
      "inputs": [
        {
          "internalType": "address",
          "name": "from",
          "type": "address"
        },
        {
          "internalType": "address",
          "name": "to",
          "type": "address"
        },
        {
          "internalType": "uint256",
          "name": "tokenId",
          "type": "uint256"
        }
      ],
      "name": "transferFrom",
      "outputs": [],
      "stateMutability": "nonpayable",
      "type": "function"
    }
  ],
  "bytecode": "0x60806040526040518060a001604052806066815260200162004615606691396009908051906020019062000035929190620009ba565b506040518060800160405280605281526020016200453360529139600a908051906020019062000067929190620009ba565b50604051806060016040528060278152602001620045ee60279139600b908051906020019062000099929190620009ba565b506040518060400160405280601681526020017f3b7d3c2f7374796c653e3c706174682066696c6c3d2700000000000000000000815250600c9080519060200190620000e7929190620009ba565b5060405180610120016040528060ff8152602001620046a160ff9139600d90805190602001906200011a929190620009ba565b506040518060400160405280600d81526020017f3c2f746578743e3c2f7376673e00000000000000000000000000000000000000815250600e908051906020019062000168929190620009ba565b506040518060600160405280602681526020016200467b60269139600f90805190602001906200019a929190620009ba565b506040518060400160405280600881526020017f206f66207376672000000000000000000000000000000000000000000000000081525060109080519060200190620001e8929190620009ba565b506040518060800160405280604781526020016200458560479139601190805190602001906200021a929190620009ba565b506040518060400160405280600a81526020017f222c226e616d65223a22000000000000000000000000000000000000000000008152506012908051906020019062000268929190620009ba565b50604051806060016040528060348152602001620044ff60349139601390805190602001906200029a929190620009ba565b50604051806060016040528060228152602001620045cc6022913960149080519060200190620002cc929190620009ba565b506040518060400160405280600481526020017f227d5d7d00000000000000000000000000000000000000000000000000000000815250601590805190602001906200031a929190620009ba565b506040518061018001604052806040518060400160405280600381526020017f726564000000000000000000000000000000000000000000000000000000000081525081526020016040518060400160405280600481526020017f626c75650000000000000000000000000000000000000000000000000000000081525081526020016040518060400160405280600581526020017f677265656e00000000000000000000000000000000000000000000000000000081525081526020016040518060400160405280600681526020017f6f72616e6765000000000000000000000000000000000000000000000000000081525081526020016040518060400160405280600381526020017f726564000000000000000000000000000000000000000000000000000000000081525081526020016040518060400160405280600481526020017f626c75650000000000000000000000000000000000000000000000000000000081525081526020016040518060400160405280600581526020017f677265656e00000000000000000000000000000000000000000000000000000081525081526020016040518060400160405280600681526020017f6f72616e6765000000000000000000000000000000000000000000000000000081525081526020016040518060400160405280600381526020017f726564000000000000000000000000000000000000000000000000000000000081525081526020016040518060400160405280600481526020017f626c75650000000000000000000000000000000000000000000000000000000081525081526020016040518060400160405280600581526020017f677265656e00000000000000000000000000000000000000000000000000000081525081526020016040518060400160405280600681526020017f6f72616e67650000000000000000000000000000000000000000000000000000815250815250601690600c620005fb92919062000a4b565b5060006017556040518061018001604052806040518060400160405280600581526020017f626c61636b00000000000000000000000000000000000000000000000000000081525081526020016040518060400160405280600581526020017f776869746500000000000000000000000000000000000000000000000000000081525081526020016040518060400160405280600581526020017f62726f776e00000000000000000000000000000000000000000000000000000081525081526020016040518060400160405280600581526020017f626c61636b00000000000000000000000000000000000000000000000000000081525081526020016040518060400160405280600581526020017f776869746500000000000000000000000000000000000000000000000000000081525081526020016040518060400160405280600581526020017f62726f776e00000000000000000000000000000000000000000000000000000081525081526020016040518060400160405280600581526020017f626c61636b00000000000000000000000000000000000000000000000000000081525081526020016040518060400160405280600581526020017f776869746500000000000000000000000000000000000000000000000000000081525081526020016040518060400160405280600581526020017f62726f776e00000000000000000000000000000000000000000000000000000081525081526020016040518060400160405280600581526020017f626c61636b00000000000000000000000000000000000000000000000000000081525081526020016040518060400160405280600581526020017f776869746500000000000000000000000000000000000000000000000000000081525081526020016040518060400160405280600581526020017f62726f776e000000000000000000000000000000000000000000000000000000815250815250601890600c620008e192919062000a4b565b5060006019556040518060400160405280600b81526020017f537667436f6c6c6f7265640000000000000000000000000000000000000000008152506040518060400160405280600481526020017f537667430000000000000000000000000000000000000000000000000000000081525081600090805190602001906200096b929190620009ba565b50806001908051906020019062000984929190620009ba565b5050506200099e6007620009a460201b620014d71760201c565b62000ba4565b6001816000016000828254019250508190555050565b828054620009c89062000b3f565b90600052602060002090601f016020900481019282620009ec576000855562000a38565b82601f1062000a0757805160ff191683800117855562000a38565b8280016001018555821562000a38579182015b8281111562000a3757825182559160200191906001019062000a1a565b5b50905062000a47919062000ab2565b5090565b82805482825590600052602060002090810192821562000a9f579160200282015b8281111562000a9e57825182908051906020019062000a8d929190620009ba565b509160200191906001019062000a6c565b5b50905062000aae919062000ad1565b5090565b5b8082111562000acd57600081600090555060010162000ab3565b5090565b5b8082111562000af5576000818162000aeb919062000af9565b5060010162000ad2565b5090565b50805462000b079062000b3f565b6000825580601f1062000b1b575062000b3c565b601f01602090049060005260206000209081019062000b3b919062000ab2565b5b50565b6000600282049050600182168062000b5857607f821691505b6020821081141562000b6f5762000b6e62000b75565b5b50919050565b7f4e487b7100000000000000000000000000000000000000000000000000000000600052602260045260246000fd5b61394b8062000bb46000396000f3fe608060405234801561001057600080fd5b506004361061010b5760003560e01c80636352211e116100a257806395d89b411161007157806395d89b41146102dc578063a22cb465146102fa578063b88d4fde14610316578063c87b56dd14610332578063e985e9c5146103625761010b565b80636352211e1461022e57806370a082311461025e578063917145911461028e57806394df0084146102be5761010b565b806323b872dd116100de57806323b872dd146101aa57806339fa8daf146101c657806342842e0e146101e257806357732175146101fe5761010b565b806301ffc9a71461011057806306fdde0314610140578063081812fc1461015e578063095ea7b31461018e575b600080fd5b61012a6004803603810190610125919061279a565b610392565b6040516101379190612eb4565b60405180910390f35b610148610474565b6040516101559190612ecf565b60405180910390f35b610178600480360381019061017391906129df565b610506565b6040516101859190612e24565b60405180910390f35b6101a860048036038101906101a3919061275e565b61054c565b005b6101c460048036038101906101bf9190612658565b610664565b005b6101e060048036038101906101db91906127ec565b6106c4565b005b6101fc60048036038101906101f79190612658565b610bfb565b005b6102186004803603810190610213919061282d565b610c1b565b6040516102259190612ecf565b60405180910390f35b610248600480360381019061024391906129df565b610e46565b6040516102559190612e24565b60405180910390f35b610278600480360381019061027391906125f3565b610ef8565b6040516102859190613091565b60405180910390f35b6102a860048036038101906102a391906128f0565b610fb0565b6040516102b59190612ecf565b60405180910390f35b6102c66111df565b6040516102d39190613091565b60405180910390f35b6102e4611226565b6040516102f19190612ecf565b60405180910390f35b610314600480360381019061030f9190612722565b6112b8565b005b610330600480360381019061032b91906126a7565b6112ce565b005b61034c600480360381019061034791906129df565b611330565b6040516103599190612ecf565b60405180910390f35b61037c6004803603810190610377919061261c565b611443565b6040516103899190612eb4565b60405180910390f35b60007f80ac58cd000000000000000000000000000000000000000000000000000000007bffffffffffffffffffffffffffffffffffffffffffffffffffffffff1916827bffffffffffffffffffffffffffffffffffffffffffffffffffffffff1916148061045d57507f5b5e139f000000000000000000000000000000000000000000000000000000007bffffffffffffffffffffffffffffffffffffffffffffffffffffffff1916827bffffffffffffffffffffffffffffffffffffffffffffffffffffffff1916145b8061046d575061046c826114ed565b5b9050919050565b60606000805461048390613361565b80601f01602080910402602001604051908101604052809291908181526020018280546104af90613361565b80156104fc5780601f106104d1576101008083540402835291602001916104fc565b820191906000526020600020905b8154815290600101906020018083116104df57829003601f168201915b5050505050905090565b600061051182611557565b6004600083815260200190815260200160002060009054906101000a900473ffffffffffffffffffffffffffffffffffffffff169050919050565b600061055782610e46565b90508073ffffffffffffffffffffffffffffffffffffffff168373ffffffffffffffffffffffffffffffffffffffff1614156105c8576040517f08c379a00000000000000000000000000000000000000000000000000000000081526004016105bf90613051565b60405180910390fd5b8073ffffffffffffffffffffffffffffffffffffffff166105e76115a2565b73ffffffffffffffffffffffffffffffffffffffff1614806106165750610615816106106115a2565b611443565b5b610655576040517f08c379a000000000000000000000000000000000000000000000000000000000815260040161064c90612ff1565b60405180910390fd5b61065f83836115aa565b505050565b61067561066f6115a2565b82611663565b6106b4576040517f08c379a00000000000000000000000000000000000000000000000000000000081526004016106ab90613071565b60405180910390fd5b6106bf8383836116f8565b505050565b6014600860003373ffffffffffffffffffffffffffffffffffffffff1673ffffffffffffffffffffffffffffffffffffffff1681526020019081526020016000205410610746576040517f08c379a000000000000000000000000000000000000000000000000000000000815260040161073d90612f11565b60405180910390fd5b6000610752600761195f565b905061075e338261196d565b600060168054905042610771919061340d565b905060175481141561079f5760018161078a9190613196565b905060168054905081141561079e57600090505b5b806017819055506000601880549050426107b9919061340d565b90506019548114156107e7576001816107d29190613196565b90506018805490508114156107e657600090505b5b80601981905550600061099c6016848154811061082d577f4e487b7100000000000000000000000000000000000000000000000000000000600052603260045260246000fd5b90600052602060002001805461084290613361565b80601f016020809104026020016040519081016040528092919081815260200182805461086e90613361565b80156108bb5780601f10610890576101008083540402835291602001916108bb565b820191906000526020600020905b81548152906001019060200180831161089e57829003601f168201915b5050505050601884815481106108fa577f4e487b7100000000000000000000000000000000000000000000000000000000600052603260045260246000fd5b90600052602060002001805461090f90613361565b80601f016020809104026020016040519081016040528092919081815260200182805461093b90613361565b80156109885780601f1061095d57610100808354040283529160200191610988565b820191906000526020600020905b81548152906001019060200180831161096b57829003601f168201915b50505050506109968761198b565b88610c1b565b90506000610b4d601685815481106109dd577f4e487b7100000000000000000000000000000000000000000000000000000000600052603260045260246000fd5b9060005260206000200180546109f290613361565b80601f0160208091040260200160405190810160405280929190818152602001828054610a1e90613361565b8015610a6b5780601f10610a4057610100808354040283529160200191610a6b565b820191906000526020600020905b815481529060010190602001808311610a4e57829003601f168201915b505050505060188581548110610aaa577f4e487b7100000000000000000000000000000000000000000000000000000000600052603260045260246000fd5b906000526020600020018054610abf90613361565b80601f0160208091040260200160405190810160405280929190818152602001828054610aeb90613361565b8015610b385780601f10610b0d57610100808354040283529160200191610b38565b820191906000526020600020905b815481529060010190602001808311610b1b57829003601f168201915b5050505050610b468861198b565b8986610fb0565b9050610b598582611b38565b610b6360076114d7565b6001600860003373ffffffffffffffffffffffffffffffffffffffff1673ffffffffffffffffffffffffffffffffffffffff1681526020019081526020016000206000828254610bb39190613196565b925050819055507febb98688741ffa4c7589bf325de30cf7becb63de567842e1ccdb6cb949fdc82c3386604051610beb929190612e8b565b60405180910390a1505050505050565b610c16838383604051806020016040528060008152506112ce565b505050565b60606000600986604051602001610c33929190612e00565b604051602081830303815290604052905080600a604051602001610c58929190612d96565b60405160208183030381529060405290508086604051602001610c7c929190612d72565b604051602081830303815290604052905080600b604051602001610ca1929190612d96565b60405160208183030381529060405290508085604051602001610cc5929190612d72565b604051602081830303815290604052905080600c604051602001610cea929190612d96565b60405160208183030381529060405290508086604051602001610d0e929190612d72565b604051602081830303815290604052905080600d604051602001610d33929190612d96565b60405160208183030381529060405290508084604051602001610d57929190612d72565b604051602081830303815290604052905080604051602001610d799190612dba565b60405160208183030381529060405290508083604051602001610d9d929190612d72565b604051602081830303815290604052905080600e604051602001610dc2929190612d96565b604051602081830303815290604052905060006040518060400160405280601a81526020017f646174613a696d6167652f7376672b786d6c3b6261736536342c000000000000815250905080610e1783611bac565b604051602001610e28929190612ddc565b60405160208183030381529060405290508092505050949350505050565b6000806002600084815260200190815260200160002060009054906101000a900473ffffffffffffffffffffffffffffffffffffffff169050600073ffffffffffffffffffffffffffffffffffffffff168173ffffffffffffffffffffffffffffffffffffffff161415610eef576040517f08c379a0000000000000000000000000000000000000000000000000000000008152600401610ee690613031565b60405180910390fd5b80915050919050565b60008073ffffffffffffffffffffffffffffffffffffffff168273ffffffffffffffffffffffffffffffffffffffff161415610f69576040517f08c379a0000000000000000000000000000000000000000000000000000000008152600401610f6090612fb1565b60405180910390fd5b600360008373ffffffffffffffffffffffffffffffffffffffff1673ffffffffffffffffffffffffffffffffffffffff168152602001908152602001600020549050919050565b60606000600f85604051602001610fc8929190612e00565b6040516020818303038152906040529050806010604051602001610fed929190612d96565b60405160208183030381529060405290508084604051602001611011929190612d72565b6040516020818303038152906040529050806011604051602001611036929190612d96565b6040516020818303038152906040529050808360405160200161105a929190612d72565b604051602081830303815290604052905080601260405160200161107f929190612d96565b604051602081830303815290604052905080846040516020016110a3929190612d72565b60405160208183030381529060405290508060136040516020016110c8929190612d96565b604051602081830303815290604052905080866040516020016110ec929190612d72565b6040516020818303038152906040529050806014604051602001611111929190612d96565b60405160208183030381529060405290508087604051602001611135929190612d72565b604051602081830303815290604052905080601560405160200161115a929190612d96565b604051602081830303815290604052905060006040518060400160405280601d81526020017f646174613a6170706c69636174696f6e2f6a736f6e3b6261736536342c0000008152509050806111af83611bac565b6040516020016111c0929190612ddc565b6040516020818303038152906040529050809250505095945050505050565b6000600860003373ffffffffffffffffffffffffffffffffffffffff1673ffffffffffffffffffffffffffffffffffffffff16815260200190815260200160002054905090565b60606001805461123590613361565b80601f016020809104026020016040519081016040528092919081815260200182805461126190613361565b80156112ae5780601f10611283576101008083540402835291602001916112ae565b820191906000526020600020905b81548152906001019060200180831161129157829003601f168201915b5050505050905090565b6112ca6112c36115a2565b8383611d6a565b5050565b6112df6112d96115a2565b83611663565b61131e576040517f08c379a000000000000000000000000000000000000000000000000000000000815260040161131590613071565b60405180910390fd5b61132a84848484611ed7565b50505050565b606061133b82611557565b600060066000848152602001908152602001600020805461135b90613361565b80601f016020809104026020016040519081016040528092919081815260200182805461138790613361565b80156113d45780601f106113a9576101008083540402835291602001916113d4565b820191906000526020600020905b8154815290600101906020018083116113b757829003601f168201915b5050505050905060006113e5611f33565b90506000815114156113fb57819250505061143e565b600082511115611430578082604051602001611418929190612ddc565b6040516020818303038152906040529250505061143e565b61143984611f4a565b925050505b919050565b6000600560008473ffffffffffffffffffffffffffffffffffffffff1673ffffffffffffffffffffffffffffffffffffffff16815260200190815260200160002060008373ffffffffffffffffffffffffffffffffffffffff1673ffffffffffffffffffffffffffffffffffffffff16815260200190815260200160002060009054906101000a900460ff16905092915050565b6001816000016000828254019250508190555050565b60007f01ffc9a7000000000000000000000000000000000000000000000000000000007bffffffffffffffffffffffffffffffffffffffffffffffffffffffff1916827bffffffffffffffffffffffffffffffffffffffffffffffffffffffff1916149050919050565b61156081611fb2565b61159f576040517f08c379a000000000000000000000000000000000000000000000000000000000815260040161159690613031565b60405180910390fd5b50565b600033905090565b816004600083815260200190815260200160002060006101000a81548173ffffffffffffffffffffffffffffffffffffffff021916908373ffffffffffffffffffffffffffffffffffffffff160217905550808273ffffffffffffffffffffffffffffffffffffffff1661161d83610e46565b73ffffffffffffffffffffffffffffffffffffffff167f8c5be1e5ebec7d5bd14f71427d1e84f3dd0314c0f7b2291e5b200ac8c7c3b92560405160405180910390a45050565b60008061166f83610e46565b90508073ffffffffffffffffffffffffffffffffffffffff168473ffffffffffffffffffffffffffffffffffffffff1614806116b157506116b08185611443565b5b806116ef57508373ffffffffffffffffffffffffffffffffffffffff166116d784610506565b73ffffffffffffffffffffffffffffffffffffffff16145b91505092915050565b8273ffffffffffffffffffffffffffffffffffffffff1661171882610e46565b73ffffffffffffffffffffffffffffffffffffffff161461176e576040517f08c379a000000000000000000000000000000000000000000000000000000000815260040161176590612f31565b60405180910390fd5b600073ffffffffffffffffffffffffffffffffffffffff168273ffffffffffffffffffffffffffffffffffffffff1614156117de576040517f08c379a00000000000000000000000000000000000000000000000000000000081526004016117d590612f71565b60405180910390fd5b6117e983838361201e565b6117f46000826115aa565b6001600360008573ffffffffffffffffffffffffffffffffffffffff1673ffffffffffffffffffffffffffffffffffffffff16815260200190815260200160002060008282546118449190613277565b925050819055506001600360008473ffffffffffffffffffffffffffffffffffffffff1673ffffffffffffffffffffffffffffffffffffffff168152602001908152602001600020600082825461189b9190613196565b92505081905550816002600083815260200190815260200160002060006101000a81548173ffffffffffffffffffffffffffffffffffffffff021916908373ffffffffffffffffffffffffffffffffffffffff160217905550808273ffffffffffffffffffffffffffffffffffffffff168473ffffffffffffffffffffffffffffffffffffffff167fddf252ad1be2c89b69c2b068fc378daa952ba7f163c4a11628f55a4df523b3ef60405160405180910390a461195a838383612023565b505050565b600081600001549050919050565b611987828260405180602001604052806000815250612028565b5050565b606060008214156119d3576040518060400160405280600181526020017f30000000000000000000000000000000000000000000000000000000000000008152509050611b33565b600082905060005b60008214611a055780806119ee906133c4565b915050600a826119fe91906131ec565b91506119db565b60008167ffffffffffffffff811115611a47577f4e487b7100000000000000000000000000000000000000000000000000000000600052604160045260246000fd5b6040519080825280601f01601f191660200182016040528015611a795781602001600182028036833780820191505090505b5090505b60008514611b2c57600182611a929190613277565b9150600a85611aa1919061340d565b6030611aad9190613196565b60f81b818381518110611ae9577f4e487b7100000000000000000000000000000000000000000000000000000000600052603260045260246000fd5b60200101907effffffffffffffffffffffffffffffffffffffffffffffffffffffffffffff1916908160001a905350600a85611b2591906131ec565b9450611a7d565b8093505050505b919050565b611b4182611fb2565b611b80576040517f08c379a0000000000000000000000000000000000000000000000000000000008152600401611b7790612fd1565b60405180910390fd5b80600660008481526020019081526020016000209080519060200190611ba7929190612417565b505050565b60606000825190506000811415611bd55760405180602001604052806000815250915050611d65565b60006003600283611be69190613196565b611bf091906131ec565b6004611bfc919061321d565b90506000602082611c0d9190613196565b67ffffffffffffffff811115611c4c577f4e487b7100000000000000000000000000000000000000000000000000000000600052604160045260246000fd5b6040519080825280601f01601f191660200182016040528015611c7e5781602001600182028036833780820191505090505b50905060006040518060600160405280604081526020016138d6604091399050600181016020830160005b86811015611d225760038101905062ffffff818a015116603f8160121c168401518060081b905060ff603f83600c1c1686015116810190508060081b905060ff603f8360061c1686015116810190508060081b905060ff603f831686015116810190508060e01b90508084526004840193505050611ca9565b506003860660018114611d3c5760028114611d4c57611d57565b613d3d60f01b6002830352611d57565b603d60f81b60018303525b508484525050819450505050505b919050565b8173ffffffffffffffffffffffffffffffffffffffff168373ffffffffffffffffffffffffffffffffffffffff161415611dd9576040517f08c379a0000000000000000000000000000000000000000000000000000000008152600401611dd090612f91565b60405180910390fd5b80600560008573ffffffffffffffffffffffffffffffffffffffff1673ffffffffffffffffffffffffffffffffffffffff16815260200190815260200160002060008473ffffffffffffffffffffffffffffffffffffffff1673ffffffffffffffffffffffffffffffffffffffff16815260200190815260200160002060006101000a81548160ff0219169083151502179055508173ffffffffffffffffffffffffffffffffffffffff168373ffffffffffffffffffffffffffffffffffffffff167f17307eab39ab6107e8899845ad3d59bd9653f200f220920489ca2b5937696c3183604051611eca9190612eb4565b60405180910390a3505050565b611ee28484846116f8565b611eee84848484612083565b611f2d576040517f08c379a0000000000000000000000000000000000000000000000000000000008152600401611f2490612ef1565b60405180910390fd5b50505050565b606060405180602001604052806000815250905090565b6060611f5582611557565b6000611f5f611f33565b90506000815111611f7f5760405180602001604052806000815250611faa565b80611f898461198b565b604051602001611f9a929190612ddc565b6040516020818303038152906040525b915050919050565b60008073ffffffffffffffffffffffffffffffffffffffff166002600084815260200190815260200160002060009054906101000a900473ffffffffffffffffffffffffffffffffffffffff1673ffffffffffffffffffffffffffffffffffffffff1614159050919050565b505050565b505050565b612032838361221a565b61203f6000848484612083565b61207e576040517f08c379a000000000000000000000000000000000000000000000000000000000815260040161207590612ef1565b60405180910390fd5b505050565b60006120a48473ffffffffffffffffffffffffffffffffffffffff166123f4565b1561220d578373ffffffffffffffffffffffffffffffffffffffff1663150b7a026120cd6115a2565b8786866040518563ffffffff1660e01b81526004016120ef9493929190612e3f565b602060405180830381600087803b15801561210957600080fd5b505af192505050801561213a57506040513d601f19601f8201168201806040525081019061213791906127c3565b60015b6121bd573d806000811461216a576040519150601f19603f3d011682016040523d82523d6000602084013e61216f565b606091505b506000815114156121b5576040517f08c379a00000000000000000000000000000000000000000000000000000000081526004016121ac90612ef1565b60405180910390fd5b805181602001fd5b63150b7a0260e01b7bffffffffffffffffffffffffffffffffffffffffffffffffffffffff1916817bffffffffffffffffffffffffffffffffffffffffffffffffffffffff191614915050612212565b600190505b949350505050565b600073ffffffffffffffffffffffffffffffffffffffff168273ffffffffffffffffffffffffffffffffffffffff16141561228a576040517f08c379a000000000000000000000000000000000000000000000000000000000815260040161228190613011565b60405180910390fd5b61229381611fb2565b156122d3576040517f08c379a00000000000000000000000000000000000000000000000000000000081526004016122ca90612f51565b60405180910390fd5b6122df6000838361201e565b6001600360008473ffffffffffffffffffffffffffffffffffffffff1673ffffffffffffffffffffffffffffffffffffffff168152602001908152602001600020600082825461232f9190613196565b92505081905550816002600083815260200190815260200160002060006101000a81548173ffffffffffffffffffffffffffffffffffffffff021916908373ffffffffffffffffffffffffffffffffffffffff160217905550808273ffffffffffffffffffffffffffffffffffffffff16600073ffffffffffffffffffffffffffffffffffffffff167fddf252ad1be2c89b69c2b068fc378daa952ba7f163c4a11628f55a4df523b3ef60405160405180910390a46123f060008383612023565b5050565b6000808273ffffffffffffffffffffffffffffffffffffffff163b119050919050565b82805461242390613361565b90600052602060002090601f016020900481019282612445576000855561248c565b82601f1061245e57805160ff191683800117855561248c565b8280016001018555821561248c579182015b8281111561248b578251825591602001919060010190612470565b5b509050612499919061249d565b5090565b5b808211156124b657600081600090555060010161249e565b5090565b60006124cd6124c8846130d1565b6130ac565b9050828152602081018484840111156124e557600080fd5b6124f084828561331f565b509392505050565b600061250b61250684613102565b6130ac565b90508281526020810184848401111561252357600080fd5b61252e84828561331f565b509392505050565b60008135905061254581613879565b92915050565b60008135905061255a81613890565b92915050565b60008135905061256f816138a7565b92915050565b600081519050612584816138a7565b92915050565b600082601f83011261259b57600080fd5b81356125ab8482602086016124ba565b91505092915050565b600082601f8301126125c557600080fd5b81356125d58482602086016124f8565b91505092915050565b6000813590506125ed816138be565b92915050565b60006020828403121561260557600080fd5b600061261384828501612536565b91505092915050565b6000806040838503121561262f57600080fd5b600061263d85828601612536565b925050602061264e85828601612536565b9150509250929050565b60008060006060848603121561266d57600080fd5b600061267b86828701612536565b935050602061268c86828701612536565b925050604061269d868287016125de565b9150509250925092565b600080600080608085870312156126bd57600080fd5b60006126cb87828801612536565b94505060206126dc87828801612536565b93505060406126ed878288016125de565b925050606085013567ffffffffffffffff81111561270a57600080fd5b6127168782880161258a565b91505092959194509250565b6000806040838503121561273557600080fd5b600061274385828601612536565b92505060206127548582860161254b565b9150509250929050565b6000806040838503121561277157600080fd5b600061277f85828601612536565b9250506020612790858286016125de565b9150509250929050565b6000602082840312156127ac57600080fd5b60006127ba84828501612560565b91505092915050565b6000602082840312156127d557600080fd5b60006127e384828501612575565b91505092915050565b6000602082840312156127fe57600080fd5b600082013567ffffffffffffffff81111561281857600080fd5b612824848285016125b4565b91505092915050565b6000806000806080858703121561284357600080fd5b600085013567ffffffffffffffff81111561285d57600080fd5b612869878288016125b4565b945050602085013567ffffffffffffffff81111561288657600080fd5b612892878288016125b4565b935050604085013567ffffffffffffffff8111156128af57600080fd5b6128bb878288016125b4565b925050606085013567ffffffffffffffff8111156128d857600080fd5b6128e4878288016125b4565b91505092959194509250565b600080600080600060a0868803121561290857600080fd5b600086013567ffffffffffffffff81111561292257600080fd5b61292e888289016125b4565b955050602086013567ffffffffffffffff81111561294b57600080fd5b612957888289016125b4565b945050604086013567ffffffffffffffff81111561297457600080fd5b612980888289016125b4565b935050606086013567ffffffffffffffff81111561299d57600080fd5b6129a9888289016125b4565b925050608086013567ffffffffffffffff8111156129c657600080fd5b6129d2888289016125b4565b9150509295509295909350565b6000602082840312156129f157600080fd5b60006129ff848285016125de565b91505092915050565b612a11816132ab565b82525050565b612a20816132bd565b82525050565b6000612a3182613148565b612a3b818561315e565b9350612a4b81856020860161332e565b612a54816134fa565b840191505092915050565b6000612a6a82613148565b612a74818561316f565b9350612a8481856020860161332e565b80840191505092915050565b6000612a9b82613153565b612aa5818561317a565b9350612ab581856020860161332e565b612abe816134fa565b840191505092915050565b6000612ad482613153565b612ade818561318b565b9350612aee81856020860161332e565b80840191505092915050565b60008154612b0781613361565b612b11818661318b565b94506001821660008114612b2c5760018114612b3d57612b70565b60ff19831686528186019350612b70565b612b4685613133565b60005b83811015612b6857815481890152600182019150602081019050612b49565b838801955050505b50505092915050565b6000612b8660328361317a565b9150612b918261350b565b604082019050919050565b6000612ba9601c8361317a565b9150612bb48261355a565b602082019050919050565b6000612bcc60258361317a565b9150612bd782613583565b604082019050919050565b6000612bef601c8361317a565b9150612bfa826135d2565b602082019050919050565b6000612c1260248361317a565b9150612c1d826135fb565b604082019050919050565b6000612c3560198361317a565b9150612c408261364a565b602082019050919050565b6000612c5860018361318b565b9150612c6382613673565b600182019050919050565b6000612c7b60298361317a565b9150612c868261369c565b604082019050919050565b6000612c9e602e8361317a565b9150612ca9826136eb565b604082019050919050565b6000612cc1603e8361317a565b9150612ccc8261373a565b604082019050919050565b6000612ce460208361317a565b9150612cef82613789565b602082019050919050565b6000612d0760188361317a565b9150612d12826137b2565b602082019050919050565b6000612d2a60218361317a565b9150612d35826137db565b604082019050919050565b6000612d4d602e8361317a565b9150612d588261382a565b604082019050919050565b612d6c81613315565b82525050565b6000612d7e8285612a5f565b9150612d8a8284612ac9565b91508190509392505050565b6000612da28285612a5f565b9150612dae8284612afa565b91508190509392505050565b6000612dc68284612a5f565b9150612dd182612c4b565b915081905092915050565b6000612de88285612ac9565b9150612df48284612ac9565b91508190509392505050565b6000612e0c8285612afa565b9150612e188284612ac9565b91508190509392505050565b6000602082019050612e396000830184612a08565b92915050565b6000608082019050612e546000830187612a08565b612e616020830186612a08565b612e6e6040830185612d63565b8181036060830152612e808184612a26565b905095945050505050565b6000604082019050612ea06000830185612a08565b612ead6020830184612d63565b9392505050565b6000602082019050612ec96000830184612a17565b92915050565b60006020820190508181036000830152612ee98184612a90565b905092915050565b60006020820190508181036000830152612f0a81612b79565b9050919050565b60006020820190508181036000830152612f2a81612b9c565b9050919050565b60006020820190508181036000830152612f4a81612bbf565b9050919050565b60006020820190508181036000830152612f6a81612be2565b9050919050565b60006020820190508181036000830152612f8a81612c05565b9050919050565b60006020820190508181036000830152612faa81612c28565b9050919050565b60006020820190508181036000830152612fca81612c6e565b9050919050565b60006020820190508181036000830152612fea81612c91565b9050919050565b6000602082019050818103600083015261300a81612cb4565b9050919050565b6000602082019050818103600083015261302a81612cd7565b9050919050565b6000602082019050818103600083015261304a81612cfa565b9050919050565b6000602082019050818103600083015261306a81612d1d565b9050919050565b6000602082019050818103600083015261308a81612d40565b9050919050565b60006020820190506130a66000830184612d63565b92915050565b60006130b66130c7565b90506130c28282613393565b919050565b6000604051905090565b600067ffffffffffffffff8211156130ec576130eb6134cb565b5b6130f5826134fa565b9050602081019050919050565b600067ffffffffffffffff82111561311d5761311c6134cb565b5b613126826134fa565b9050602081019050919050565b60008190508160005260206000209050919050565b600081519050919050565b600081519050919050565b600082825260208201905092915050565b600081905092915050565b600082825260208201905092915050565b600081905092915050565b60006131a182613315565b91506131ac83613315565b9250827fffffffffffffffffffffffffffffffffffffffffffffffffffffffffffffffff038211156131e1576131e061343e565b5b828201905092915050565b60006131f782613315565b915061320283613315565b9250826132125761321161346d565b5b828204905092915050565b600061322882613315565b915061323383613315565b9250817fffffffffffffffffffffffffffffffffffffffffffffffffffffffffffffffff048311821515161561326c5761326b61343e565b5b828202905092915050565b600061328282613315565b915061328d83613315565b9250828210156132a05761329f61343e565b5b828203905092915050565b60006132b6826132f5565b9050919050565b60008115159050919050565b60007fffffffff0000000000000000000000000000000000000000000000000000000082169050919050565b600073ffffffffffffffffffffffffffffffffffffffff82169050919050565b6000819050919050565b82818337600083830152505050565b60005b8381101561334c578082015181840152602081019050613331565b8381111561335b576000848401525b50505050565b6000600282049050600182168061337957607f821691505b6020821081141561338d5761338c61349c565b5b50919050565b61339c826134fa565b810181811067ffffffffffffffff821117156133bb576133ba6134cb565b5b80604052505050565b60006133cf82613315565b91507fffffffffffffffffffffffffffffffffffffffffffffffffffffffffffffffff8214156134025761340161343e565b5b600182019050919050565b600061341882613315565b915061342383613315565b9250826134335761343261346d565b5b828206905092915050565b7f4e487b7100000000000000000000000000000000000000000000000000000000600052601160045260246000fd5b7f4e487b7100000000000000000000000000000000000000000000000000000000600052601260045260246000fd5b7f4e487b7100000000000000000000000000000000000000000000000000000000600052602260045260246000fd5b7f4e487b7100000000000000000000000000000000000000000000000000000000600052604160045260246000fd5b6000601f19601f8301169050919050565b7f4552433732313a207472616e7366657220746f206e6f6e20455243373231526560008201527f63656976657220696d706c656d656e7465720000000000000000000000000000602082015250565b7f557365722072656163686564206d6178206d696e7420616d6f756e7400000000600082015250565b7f4552433732313a207472616e736665722066726f6d20696e636f72726563742060008201527f6f776e6572000000000000000000000000000000000000000000000000000000602082015250565b7f4552433732313a20746f6b656e20616c7265616479206d696e74656400000000600082015250565b7f4552433732313a207472616e7366657220746f20746865207a65726f2061646460008201527f7265737300000000000000000000000000000000000000000000000000000000602082015250565b7f4552433732313a20617070726f766520746f2063616c6c657200000000000000600082015250565b7f2000000000000000000000000000000000000000000000000000000000000000600082015250565b7f4552433732313a2061646472657373207a65726f206973206e6f74206120766160008201527f6c6964206f776e65720000000000000000000000000000000000000000000000602082015250565b7f45524337323155524953746f726167653a2055524920736574206f66206e6f6e60008201527f6578697374656e7420746f6b656e000000000000000000000000000000000000602082015250565b7f4552433732313a20617070726f76652063616c6c6572206973206e6f7420746f60008201527f6b656e206f776e6572206e6f7220617070726f76656420666f7220616c6c0000602082015250565b7f4552433732313a206d696e7420746f20746865207a65726f2061646472657373600082015250565b7f4552433732313a20696e76616c696420746f6b656e2049440000000000000000600082015250565b7f4552433732313a20617070726f76616c20746f2063757272656e74206f776e6560008201527f7200000000000000000000000000000000000000000000000000000000000000602082015250565b7f4552433732313a2063616c6c6572206973206e6f7420746f6b656e206f776e6560008201527f72206e6f7220617070726f766564000000000000000000000000000000000000602082015250565b613882816132ab565b811461388d57600080fd5b50565b613899816132bd565b81146138a457600080fd5b50565b6138b0816132c9565b81146138bb57600080fd5b50565b6138c781613315565b81146138d257600080fd5b5056fe4142434445464748494a4b4c4d4e4f505152535455565758595a6162636465666768696a6b6c6d6e6f707172737475767778797a303132333435363738392b2fa2646970667358221220d881c64b0a501e178e4999c60f8562fe11805827bff56592b5daac1ecea9195764736f6c63430008040033222c2261747472696275746573223a5b7b2274726169745f74797065223a224261636b67726f756e64222c2276616c7565223a223b666f6e742d66616d696c793a6d6f6e6f73706163653b666f6e742d73697a653a3170783b666f6e742d7374796c653a6974616c69633b666f6e742d7765696768743a3930303b7d726563747b66696c6c3a2e3a293a293a29222c2265787465726e616c5f75726c223a2268747470733a2f2f6769746875622e636f6d2f41736f6e43532f657069635f6e667473222c22696d616765223a22227d2c7b2274726169745f74797065223a22436f6c6f72222c2276616c7565223a223b66696c6c2d6f7061636974793a302e347d7376677b6261636b67726f756e642d636f6c6f723a3c73766720786d6c6e733d27687474703a2f2f7777772e77332e6f72672f323030302f737667272077696474683d2736303027206865696768743d27363030272076696577426f783d27302030203234203234273e3c7374796c653e746578747b66696c6c3a7b226465736372697074696f6e223a2254686174206973207468652074657374204e465420232720643d274d3130203139762d35683476356330202e35352e34352031203120316833632e3535203020312d2e343520312d31762d3768312e37632e34362030202e36382d2e35372e33332d2e38374c31322e363720332e36632d2e33382d2e33342d2e39362d2e33342d312e333420306c2d382e333620372e3533632d2e33342e332d2e31332e38372e33332e3837483576376330202e35352e34352031203120316833632e3535203020312d2e343520312d317a272f3e3c7265637420783d27302720793d2732322e38272077696474683d27323427206865696768743d27312e33272f3e3c7465787420783d27302e322720793d2732332e38273e23",
  "linkReferences": {},
  "deployedLinkReferences": {}
}