{
	"_format": "hh-sol-artifact-1",
	"contractName": "MyEpicNFT",
	"sourceName": "contracts/MyEpicNFT.sol",
	"abi": [
		{
			"inputs": [],
			"stateMutability": "payable",
			"type": "constructor"
		},
		{
			"anonymous": false,
			"inputs": [
				{
					"indexed": true,
					"internalType": "address",
					"name": "owner",
					"type": "address"
				},
				{
					"indexed": true,
					"internalType": "address",
					"name": "approved",
					"type": "address"
				},
				{
					"indexed": true,
					"internalType": "uint256",
					"name": "tokenId",
					"type": "uint256"
				}
			],
			"name": "Approval",
			"type": "event"
		},
		{
			"anonymous": false,
			"inputs": [
				{
					"indexed": true,
					"internalType": "address",
					"name": "owner",
					"type": "address"
				},
				{
					"indexed": true,
					"internalType": "address",
					"name": "operator",
					"type": "address"
				},
				{
					"indexed": false,
					"internalType": "bool",
					"name": "approved",
					"type": "bool"
				}
			],
			"name": "ApprovalForAll",
			"type": "event"
		},
		{
			"anonymous": false,
			"inputs": [
				{
					"indexed": true,
					"internalType": "address",
					"name": "from",
					"type": "address"
				},
				{
					"indexed": true,
					"internalType": "address",
					"name": "to",
					"type": "address"
				},
				{
					"indexed": true,
					"internalType": "uint256",
					"name": "tokenId",
					"type": "uint256"
				}
			],
			"name": "Transfer",
			"type": "event"
		},
		{
			"inputs": [
				{
					"internalType": "address",
					"name": "to",
					"type": "address"
				},
				{
					"internalType": "uint256",
					"name": "tokenId",
					"type": "uint256"
				}
			],
			"name": "approve",
			"outputs": [],
			"stateMutability": "nonpayable",
			"type": "function"
		},
		{
			"inputs": [
				{
					"internalType": "address",
					"name": "owner",
					"type": "address"
				}
			],
			"name": "balanceOf",
			"outputs": [
				{
					"internalType": "uint256",
					"name": "",
					"type": "uint256"
				}
			],
			"stateMutability": "view",
			"type": "function"
		},
		{
			"inputs": [
				{
					"internalType": "string",
					"name": "color",
					"type": "string"
				},
				{
					"internalType": "string",
					"name": "backgroundColor",
					"type": "string"
				},
				{
					"internalType": "string",
					"name": "tokenId",
					"type": "string"
				},
				{
					"internalType": "string",
					"name": "nftName",
					"type": "string"
				},
				{
					"internalType": "string",
					"name": "image",
					"type": "string"
				}
			],
			"name": "buildJson",
			"outputs": [
				{
					"internalType": "string",
					"name": "",
					"type": "string"
				}
			],
			"stateMutability": "view",
			"type": "function"
		},
		{
			"inputs": [
				{
					"internalType": "string",
					"name": "color",
					"type": "string"
				},
				{
					"internalType": "string",
					"name": "backgroundColor",
					"type": "string"
				},
				{
					"internalType": "string",
					"name": "tokenId",
					"type": "string"
				},
				{
					"internalType": "string",
					"name": "nftName",
					"type": "string"
				}
			],
			"name": "buildSvg",
			"outputs": [
				{
					"internalType": "string",
					"name": "",
					"type": "string"
				}
			],
			"stateMutability": "view",
			"type": "function"
		},
		{
			"inputs": [
				{
					"internalType": "uint256",
					"name": "tokenId",
					"type": "uint256"
				}
			],
			"name": "getApproved",
			"outputs": [
				{
					"internalType": "address",
					"name": "",
					"type": "address"
				}
			],
			"stateMutability": "view",
			"type": "function"
		},
		{
			"inputs": [
				{
					"internalType": "address",
					"name": "owner",
					"type": "address"
				},
				{
					"internalType": "address",
					"name": "operator",
					"type": "address"
				}
			],
			"name": "isApprovedForAll",
			"outputs": [
				{
					"internalType": "bool",
					"name": "",
					"type": "bool"
				}
			],
			"stateMutability": "view",
			"type": "function"
		},
		{
			"inputs": [
				{
					"internalType": "string",
					"name": "_nftName",
					"type": "string"
				}
			],
			"name": "makeAnEpicNFT",
			"outputs": [],
			"stateMutability": "nonpayable",
			"type": "function"
		},
		{
			"inputs": [],
			"name": "name",
			"outputs": [
				{
					"internalType": "string",
					"name": "",
					"type": "string"
				}
			],
			"stateMutability": "view",
			"type": "function"
		},
		{
			"inputs": [
				{
					"internalType": "uint256",
					"name": "tokenId",
					"type": "uint256"
				}
			],
			"name": "ownerOf",
			"outputs": [
				{
					"internalType": "address",
					"name": "",
					"type": "address"
				}
			],
			"stateMutability": "view",
			"type": "function"
		},
		{
			"inputs": [
				{
					"internalType": "address",
					"name": "from",
					"type": "address"
				},
				{
					"internalType": "address",
					"name": "to",
					"type": "address"
				},
				{
					"internalType": "uint256",
					"name": "tokenId",
					"type": "uint256"
				}
			],
			"name": "safeTransferFrom",
			"outputs": [],
			"stateMutability": "nonpayable",
			"type": "function"
		},
		{
			"inputs": [
				{
					"internalType": "address",
					"name": "from",
					"type": "address"
				},
				{
					"internalType": "address",
					"name": "to",
					"type": "address"
				},
				{
					"internalType": "uint256",
					"name": "tokenId",
					"type": "uint256"
				},
				{
					"internalType": "bytes",
					"name": "data",
					"type": "bytes"
				}
			],
			"name": "safeTransferFrom",
			"outputs": [],
			"stateMutability": "nonpayable",
			"type": "function"
		},
		{
			"inputs": [
				{
					"internalType": "address",
					"name": "operator",
					"type": "address"
				},
				{
					"internalType": "bool",
					"name": "approved",
					"type": "bool"
				}
			],
			"name": "setApprovalForAll",
			"outputs": [],
			"stateMutability": "nonpayable",
			"type": "function"
		},
		{
			"inputs": [
				{
					"internalType": "bytes4",
					"name": "interfaceId",
					"type": "bytes4"
				}
			],
			"name": "supportsInterface",
			"outputs": [
				{
					"internalType": "bool",
					"name": "",
					"type": "bool"
				}
			],
			"stateMutability": "view",
			"type": "function"
		},
		{
			"inputs": [],
			"name": "symbol",
			"outputs": [
				{
					"internalType": "string",
					"name": "",
					"type": "string"
				}
			],
			"stateMutability": "view",
			"type": "function"
		},
		{
			"inputs": [
				{
					"internalType": "uint256",
					"name": "tokenId",
					"type": "uint256"
				}
			],
			"name": "tokenURI",
			"outputs": [
				{
					"internalType": "string",
					"name": "",
					"type": "string"
				}
			],
			"stateMutability": "view",
			"type": "function"
		},
		{
			"inputs": [
				{
					"internalType": "address",
					"name": "from",
					"type": "address"
				},
				{
					"internalType": "address",
					"name": "to",
					"type": "address"
				},
				{
					"internalType": "uint256",
					"name": "tokenId",
					"type": "uint256"
				}
			],
			"name": "transferFrom",
			"outputs": [],
			"stateMutability": "nonpayable",
			"type": "function"
		}
	],
	"bytecode": "0x60806040526040518060a00160405280606681526020016200422060669139600890805190602001906200003592919062000975565b506040518060800160405280605281526020016200413e60529139600990805190602001906200006792919062000975565b50604051806060016040528060278152602001620041f960279139600a90805190602001906200009992919062000975565b506040518060400160405280601681526020017f3b7d3c2f7374796c653e3c706174682066696c6c3d2700000000000000000000815250600b9080519060200190620000e792919062000975565b5060405180610120016040528060ff8152602001620042ac60ff9139600c90805190602001906200011a92919062000975565b506040518060400160405280600d81526020017f3c2f746578743e3c2f7376673e00000000000000000000000000000000000000815250600d90805190602001906200016892919062000975565b506040518060600160405280602681526020016200428660269139600e90805190602001906200019a92919062000975565b506040518060400160405280600881526020017f206f662073766720000000000000000000000000000000000000000000000000815250600f9080519060200190620001e892919062000975565b506040518060800160405280604781526020016200419060479139601090805190602001906200021a92919062000975565b506040518060400160405280600a81526020017f222c226e616d65223a2200000000000000000000000000000000000000000000815250601190805190602001906200026892919062000975565b506040518060600160405280603481526020016200410a60349139601290805190602001906200029a92919062000975565b50604051806060016040528060228152602001620041d76022913960139080519060200190620002cc92919062000975565b506040518060400160405280600481526020017f227d5d7d00000000000000000000000000000000000000000000000000000000815250601490805190602001906200031a92919062000975565b506040518061018001604052806040518060400160405280600381526020017f726564000000000000000000000000000000000000000000000000000000000081525081526020016040518060400160405280600481526020017f626c75650000000000000000000000000000000000000000000000000000000081525081526020016040518060400160405280600581526020017f677265656e00000000000000000000000000000000000000000000000000000081525081526020016040518060400160405280600681526020017f6f72616e6765000000000000000000000000000000000000000000000000000081525081526020016040518060400160405280600381526020017f726564000000000000000000000000000000000000000000000000000000000081525081526020016040518060400160405280600481526020017f626c75650000000000000000000000000000000000000000000000000000000081525081526020016040518060400160405280600581526020017f677265656e00000000000000000000000000000000000000000000000000000081525081526020016040518060400160405280600681526020017f6f72616e6765000000000000000000000000000000000000000000000000000081525081526020016040518060400160405280600381526020017f726564000000000000000000000000000000000000000000000000000000000081525081526020016040518060400160405280600481526020017f626c75650000000000000000000000000000000000000000000000000000000081525081526020016040518060400160405280600581526020017f677265656e00000000000000000000000000000000000000000000000000000081525081526020016040518060400160405280600681526020017f6f72616e67650000000000000000000000000000000000000000000000000000815250815250601590600c620005fb92919062000a06565b506040518061016001604052806040518060400160405280600581526020017f626c61636b00000000000000000000000000000000000000000000000000000081525081526020016040518060400160405280600581526020017f776869746500000000000000000000000000000000000000000000000000000081525081526020016040518060400160405280600581526020017f62726f776e00000000000000000000000000000000000000000000000000000081525081526020016040518060400160405280600581526020017f776869746500000000000000000000000000000000000000000000000000000081525081526020016040518060400160405280600581526020017f626c61636b00000000000000000000000000000000000000000000000000000081525081526020016040518060400160405280600581526020017f62726f776e00000000000000000000000000000000000000000000000000000081525081526020016040518060400160405280600581526020017f626c61636b00000000000000000000000000000000000000000000000000000081525081526020016040518060400160405280600581526020017f776869746500000000000000000000000000000000000000000000000000000081525081526020016040518060400160405280600581526020017f62726f776e00000000000000000000000000000000000000000000000000000081525081526020016040518060400160405280600581526020017f776869746500000000000000000000000000000000000000000000000000000081525081526020016040518060400160405280600581526020017f62726f776e000000000000000000000000000000000000000000000000000000815250815250601690600b620008a192919062000a6d565b506040518060400160405280600b81526020017f537667436f6c6c6f7265640000000000000000000000000000000000000000008152506040518060400160405280600481526020017f537667430000000000000000000000000000000000000000000000000000000081525081600090805190602001906200092692919062000975565b5080600190805190602001906200093f92919062000975565b5050506200095960076200095f60201b620011551760201c565b62000bc6565b6001816000016000828254019250508190555050565b828054620009839062000b61565b90600052602060002090601f016020900481019282620009a75760008555620009f3565b82601f10620009c257805160ff1916838001178555620009f3565b82800160010185558215620009f3579182015b82811115620009f2578251825591602001919060010190620009d5565b5b50905062000a02919062000ad4565b5090565b82805482825590600052602060002090810192821562000a5a579160200282015b8281111562000a5957825182908051906020019062000a4892919062000975565b509160200191906001019062000a27565b5b50905062000a69919062000af3565b5090565b82805482825590600052602060002090810192821562000ac1579160200282015b8281111562000ac057825182908051906020019062000aaf92919062000975565b509160200191906001019062000a8e565b5b50905062000ad0919062000af3565b5090565b5b8082111562000aef57600081600090555060010162000ad5565b5090565b5b8082111562000b17576000818162000b0d919062000b1b565b5060010162000af4565b5090565b50805462000b299062000b61565b6000825580601f1062000b3d575062000b5e565b601f01602090049060005260206000209081019062000b5d919062000ad4565b5b50565b6000600282049050600182168062000b7a57607f821691505b6020821081141562000b915762000b9062000b97565b5b50919050565b7f4e487b7100000000000000000000000000000000000000000000000000000000600052602260045260246000fd5b6135348062000bd66000396000f3fe608060405234801561001057600080fd5b50600436106101005760003560e01c80636352211e11610097578063a22cb46511610066578063a22cb465146102d1578063b88d4fde146102ed578063c87b56dd14610309578063e985e9c51461033957610100565b80636352211e1461022357806370a0823114610253578063917145911461028357806395d89b41146102b357610100565b806323b872dd116100d357806323b872dd1461019f57806339fa8daf146101bb57806342842e0e146101d757806357732175146101f357610100565b806301ffc9a71461010557806306fdde0314610135578063081812fc14610153578063095ea7b314610183575b600080fd5b61011f600480360381019061011a9190612418565b610369565b60405161012c9190612ae6565b60405180910390f35b61013d61044b565b60405161014a9190612b01565b60405180910390f35b61016d6004803603810190610168919061265d565b6104dd565b60405161017a9190612a7f565b60405180910390f35b61019d600480360381019061019891906123dc565b610523565b005b6101b960048036038101906101b491906122d6565b61063b565b005b6101d560048036038101906101d0919061246a565b61069b565b005b6101f160048036038101906101ec91906122d6565b6108c0565b005b61020d600480360381019061020891906124ab565b6108e0565b60405161021a9190612b01565b60405180910390f35b61023d6004803603810190610238919061265d565b610b0b565b60405161024a9190612a7f565b60405180910390f35b61026d60048036038101906102689190612271565b610bbd565b60405161027a9190612ca3565b60405180910390f35b61029d6004803603810190610298919061256e565b610c75565b6040516102aa9190612b01565b60405180910390f35b6102bb610ea4565b6040516102c89190612b01565b60405180910390f35b6102eb60048036038101906102e691906123a0565b610f36565b005b61030760048036038101906103029190612325565b610f4c565b005b610323600480360381019061031e919061265d565b610fae565b6040516103309190612b01565b60405180910390f35b610353600480360381019061034e919061229a565b6110c1565b6040516103609190612ae6565b60405180910390f35b60007f80ac58cd000000000000000000000000000000000000000000000000000000007bffffffffffffffffffffffffffffffffffffffffffffffffffffffff1916827bffffffffffffffffffffffffffffffffffffffffffffffffffffffff1916148061043457507f5b5e139f000000000000000000000000000000000000000000000000000000007bffffffffffffffffffffffffffffffffffffffffffffffffffffffff1916827bffffffffffffffffffffffffffffffffffffffffffffffffffffffff1916145b8061044457506104438261116b565b5b9050919050565b60606000805461045a90612f73565b80601f016020809104026020016040519081016040528092919081815260200182805461048690612f73565b80156104d35780601f106104a8576101008083540402835291602001916104d3565b820191906000526020600020905b8154815290600101906020018083116104b657829003601f168201915b5050505050905090565b60006104e8826111d5565b6004600083815260200190815260200160002060009054906101000a900473ffffffffffffffffffffffffffffffffffffffff169050919050565b600061052e82610b0b565b90508073ffffffffffffffffffffffffffffffffffffffff168373ffffffffffffffffffffffffffffffffffffffff16141561059f576040517f08c379a000000000000000000000000000000000000000000000000000000000815260040161059690612c63565b60405180910390fd5b8073ffffffffffffffffffffffffffffffffffffffff166105be611220565b73ffffffffffffffffffffffffffffffffffffffff1614806105ed57506105ec816105e7611220565b6110c1565b5b61062c576040517f08c379a000000000000000000000000000000000000000000000000000000000815260040161062390612c03565b60405180910390fd5b6106368383611228565b505050565b61064c610646611220565b826112e1565b61068b576040517f08c379a000000000000000000000000000000000000000000000000000000000815260040161068290612c83565b60405180910390fd5b610696838383611376565b505050565b60006106a760076115dd565b90506106b333826115eb565b600060158080549050426106c7919061301f565b815481106106fe577f4e487b7100000000000000000000000000000000000000000000000000000000600052603260045260246000fd5b90600052602060002001805461071390612f73565b80601f016020809104026020016040519081016040528092919081815260200182805461073f90612f73565b801561078c5780601f106107615761010080835404028352916020019161078c565b820191906000526020600020905b81548152906001019060200180831161076f57829003601f168201915b50505050509050600060168080549050426107a7919061301f565b815481106107de577f4e487b7100000000000000000000000000000000000000000000000000000000600052603260045260246000fd5b9060005260206000200180546107f390612f73565b80601f016020809104026020016040519081016040528092919081815260200182805461081f90612f73565b801561086c5780601f106108415761010080835404028352916020019161086c565b820191906000526020600020905b81548152906001019060200180831161084f57829003601f168201915b505050505090506000610889838361088387611609565b886108e0565b905060006108a2848461089b88611609565b8986610c75565b90506108ae85826117b6565b6108b86007611155565b505050505050565b6108db83838360405180602001604052806000815250610f4c565b505050565b606060006008866040516020016108f8929190612a5b565b604051602081830303815290604052905080600960405160200161091d9291906129f1565b604051602081830303815290604052905080866040516020016109419291906129cd565b604051602081830303815290604052905080600a6040516020016109669291906129f1565b6040516020818303038152906040529050808560405160200161098a9291906129cd565b604051602081830303815290604052905080600b6040516020016109af9291906129f1565b604051602081830303815290604052905080866040516020016109d39291906129cd565b604051602081830303815290604052905080600c6040516020016109f89291906129f1565b60405160208183030381529060405290508084604051602001610a1c9291906129cd565b604051602081830303815290604052905080604051602001610a3e9190612a15565b60405160208183030381529060405290508083604051602001610a629291906129cd565b604051602081830303815290604052905080600d604051602001610a879291906129f1565b604051602081830303815290604052905060006040518060400160405280601a81526020017f646174613a696d6167652f7376672b786d6c3b6261736536342c000000000000815250905080610adc8361182a565b604051602001610aed929190612a37565b60405160208183030381529060405290508092505050949350505050565b6000806002600084815260200190815260200160002060009054906101000a900473ffffffffffffffffffffffffffffffffffffffff169050600073ffffffffffffffffffffffffffffffffffffffff168173ffffffffffffffffffffffffffffffffffffffff161415610bb4576040517f08c379a0000000000000000000000000000000000000000000000000000000008152600401610bab90612c43565b60405180910390fd5b80915050919050565b60008073ffffffffffffffffffffffffffffffffffffffff168273ffffffffffffffffffffffffffffffffffffffff161415610c2e576040517f08c379a0000000000000000000000000000000000000000000000000000000008152600401610c2590612bc3565b60405180910390fd5b600360008373ffffffffffffffffffffffffffffffffffffffff1673ffffffffffffffffffffffffffffffffffffffff168152602001908152602001600020549050919050565b60606000600e85604051602001610c8d929190612a5b565b604051602081830303815290604052905080600f604051602001610cb29291906129f1565b60405160208183030381529060405290508084604051602001610cd69291906129cd565b6040516020818303038152906040529050806010604051602001610cfb9291906129f1565b60405160208183030381529060405290508083604051602001610d1f9291906129cd565b6040516020818303038152906040529050806011604051602001610d449291906129f1565b60405160208183030381529060405290508084604051602001610d689291906129cd565b6040516020818303038152906040529050806012604051602001610d8d9291906129f1565b60405160208183030381529060405290508086604051602001610db19291906129cd565b6040516020818303038152906040529050806013604051602001610dd69291906129f1565b60405160208183030381529060405290508087604051602001610dfa9291906129cd565b6040516020818303038152906040529050806014604051602001610e1f9291906129f1565b604051602081830303815290604052905060006040518060400160405280601d81526020017f646174613a6170706c69636174696f6e2f6a736f6e3b6261736536342c000000815250905080610e748361182a565b604051602001610e85929190612a37565b6040516020818303038152906040529050809250505095945050505050565b606060018054610eb390612f73565b80601f0160208091040260200160405190810160405280929190818152602001828054610edf90612f73565b8015610f2c5780601f10610f0157610100808354040283529160200191610f2c565b820191906000526020600020905b815481529060010190602001808311610f0f57829003601f168201915b5050505050905090565b610f48610f41611220565b83836119e8565b5050565b610f5d610f57611220565b836112e1565b610f9c576040517f08c379a0000000000000000000000000000000000000000000000000000000008152600401610f9390612c83565b60405180910390fd5b610fa884848484611b55565b50505050565b6060610fb9826111d5565b6000600660008481526020019081526020016000208054610fd990612f73565b80601f016020809104026020016040519081016040528092919081815260200182805461100590612f73565b80156110525780601f1061102757610100808354040283529160200191611052565b820191906000526020600020905b81548152906001019060200180831161103557829003601f168201915b505050505090506000611063611bb1565b90506000815114156110795781925050506110bc565b6000825111156110ae578082604051602001611096929190612a37565b604051602081830303815290604052925050506110bc565b6110b784611bc8565b925050505b919050565b6000600560008473ffffffffffffffffffffffffffffffffffffffff1673ffffffffffffffffffffffffffffffffffffffff16815260200190815260200160002060008373ffffffffffffffffffffffffffffffffffffffff1673ffffffffffffffffffffffffffffffffffffffff16815260200190815260200160002060009054906101000a900460ff16905092915050565b6001816000016000828254019250508190555050565b60007f01ffc9a7000000000000000000000000000000000000000000000000000000007bffffffffffffffffffffffffffffffffffffffffffffffffffffffff1916827bffffffffffffffffffffffffffffffffffffffffffffffffffffffff1916149050919050565b6111de81611c30565b61121d576040517f08c379a000000000000000000000000000000000000000000000000000000000815260040161121490612c43565b60405180910390fd5b50565b600033905090565b816004600083815260200190815260200160002060006101000a81548173ffffffffffffffffffffffffffffffffffffffff021916908373ffffffffffffffffffffffffffffffffffffffff160217905550808273ffffffffffffffffffffffffffffffffffffffff1661129b83610b0b565b73ffffffffffffffffffffffffffffffffffffffff167f8c5be1e5ebec7d5bd14f71427d1e84f3dd0314c0f7b2291e5b200ac8c7c3b92560405160405180910390a45050565b6000806112ed83610b0b565b90508073ffffffffffffffffffffffffffffffffffffffff168473ffffffffffffffffffffffffffffffffffffffff16148061132f575061132e81856110c1565b5b8061136d57508373ffffffffffffffffffffffffffffffffffffffff16611355846104dd565b73ffffffffffffffffffffffffffffffffffffffff16145b91505092915050565b8273ffffffffffffffffffffffffffffffffffffffff1661139682610b0b565b73ffffffffffffffffffffffffffffffffffffffff16146113ec576040517f08c379a00000000000000000000000000000000000000000000000000000000081526004016113e390612b43565b60405180910390fd5b600073ffffffffffffffffffffffffffffffffffffffff168273ffffffffffffffffffffffffffffffffffffffff16141561145c576040517f08c379a000000000000000000000000000000000000000000000000000000000815260040161145390612b83565b60405180910390fd5b611467838383611c9c565b611472600082611228565b6001600360008573ffffffffffffffffffffffffffffffffffffffff1673ffffffffffffffffffffffffffffffffffffffff16815260200190815260200160002060008282546114c29190612e89565b925050819055506001600360008473ffffffffffffffffffffffffffffffffffffffff1673ffffffffffffffffffffffffffffffffffffffff16815260200190815260200160002060008282546115199190612da8565b92505081905550816002600083815260200190815260200160002060006101000a81548173ffffffffffffffffffffffffffffffffffffffff021916908373ffffffffffffffffffffffffffffffffffffffff160217905550808273ffffffffffffffffffffffffffffffffffffffff168473ffffffffffffffffffffffffffffffffffffffff167fddf252ad1be2c89b69c2b068fc378daa952ba7f163c4a11628f55a4df523b3ef60405160405180910390a46115d8838383611ca1565b505050565b600081600001549050919050565b611605828260405180602001604052806000815250611ca6565b5050565b60606000821415611651576040518060400160405280600181526020017f300000000000000000000000000000000000000000000000000000000000000081525090506117b1565b600082905060005b6000821461168357808061166c90612fd6565b915050600a8261167c9190612dfe565b9150611659565b60008167ffffffffffffffff8111156116c5577f4e487b7100000000000000000000000000000000000000000000000000000000600052604160045260246000fd5b6040519080825280601f01601f1916602001820160405280156116f75781602001600182028036833780820191505090505b5090505b600085146117aa576001826117109190612e89565b9150600a8561171f919061301f565b603061172b9190612da8565b60f81b818381518110611767577f4e487b7100000000000000000000000000000000000000000000000000000000600052603260045260246000fd5b60200101907effffffffffffffffffffffffffffffffffffffffffffffffffffffffffffff1916908160001a905350600a856117a39190612dfe565b94506116fb565b8093505050505b919050565b6117bf82611c30565b6117fe576040517f08c379a00000000000000000000000000000000000000000000000000000000081526004016117f590612be3565b60405180910390fd5b80600660008481526020019081526020016000209080519060200190611825929190612095565b505050565b6060600082519050600081141561185357604051806020016040528060008152509150506119e3565b600060036002836118649190612da8565b61186e9190612dfe565b600461187a9190612e2f565b9050600060208261188b9190612da8565b67ffffffffffffffff8111156118ca577f4e487b7100000000000000000000000000000000000000000000000000000000600052604160045260246000fd5b6040519080825280601f01601f1916602001820160405280156118fc5781602001600182028036833780820191505090505b50905060006040518060600160405280604081526020016134bf604091399050600181016020830160005b868110156119a05760038101905062ffffff818a015116603f8160121c168401518060081b905060ff603f83600c1c1686015116810190508060081b905060ff603f8360061c1686015116810190508060081b905060ff603f831686015116810190508060e01b90508084526004840193505050611927565b5060038606600181146119ba57600281146119ca576119d5565b613d3d60f01b60028303526119d5565b603d60f81b60018303525b508484525050819450505050505b919050565b8173ffffffffffffffffffffffffffffffffffffffff168373ffffffffffffffffffffffffffffffffffffffff161415611a57576040517f08c379a0000000000000000000000000000000000000000000000000000000008152600401611a4e90612ba3565b60405180910390fd5b80600560008573ffffffffffffffffffffffffffffffffffffffff1673ffffffffffffffffffffffffffffffffffffffff16815260200190815260200160002060008473ffffffffffffffffffffffffffffffffffffffff1673ffffffffffffffffffffffffffffffffffffffff16815260200190815260200160002060006101000a81548160ff0219169083151502179055508173ffffffffffffffffffffffffffffffffffffffff168373ffffffffffffffffffffffffffffffffffffffff167f17307eab39ab6107e8899845ad3d59bd9653f200f220920489ca2b5937696c3183604051611b489190612ae6565b60405180910390a3505050565b611b60848484611376565b611b6c84848484611d01565b611bab576040517f08c379a0000000000000000000000000000000000000000000000000000000008152600401611ba290612b23565b60405180910390fd5b50505050565b606060405180602001604052806000815250905090565b6060611bd3826111d5565b6000611bdd611bb1565b90506000815111611bfd5760405180602001604052806000815250611c28565b80611c0784611609565b604051602001611c18929190612a37565b6040516020818303038152906040525b915050919050565b60008073ffffffffffffffffffffffffffffffffffffffff166002600084815260200190815260200160002060009054906101000a900473ffffffffffffffffffffffffffffffffffffffff1673ffffffffffffffffffffffffffffffffffffffff1614159050919050565b505050565b505050565b611cb08383611e98565b611cbd6000848484611d01565b611cfc576040517f08c379a0000000000000000000000000000000000000000000000000000000008152600401611cf390612b23565b60405180910390fd5b505050565b6000611d228473ffffffffffffffffffffffffffffffffffffffff16612072565b15611e8b578373ffffffffffffffffffffffffffffffffffffffff1663150b7a02611d4b611220565b8786866040518563ffffffff1660e01b8152600401611d6d9493929190612a9a565b602060405180830381600087803b158015611d8757600080fd5b505af1925050508015611db857506040513d601f19601f82011682018060405250810190611db59190612441565b60015b611e3b573d8060008114611de8576040519150601f19603f3d011682016040523d82523d6000602084013e611ded565b606091505b50600081511415611e33576040517f08c379a0000000000000000000000000000000000000000000000000000000008152600401611e2a90612b23565b60405180910390fd5b805181602001fd5b63150b7a0260e01b7bffffffffffffffffffffffffffffffffffffffffffffffffffffffff1916817bffffffffffffffffffffffffffffffffffffffffffffffffffffffff191614915050611e90565b600190505b949350505050565b600073ffffffffffffffffffffffffffffffffffffffff168273ffffffffffffffffffffffffffffffffffffffff161415611f08576040517f08c379a0000000000000000000000000000000000000000000000000000000008152600401611eff90612c23565b60405180910390fd5b611f1181611c30565b15611f51576040517f08c379a0000000000000000000000000000000000000000000000000000000008152600401611f4890612b63565b60405180910390fd5b611f5d60008383611c9c565b6001600360008473ffffffffffffffffffffffffffffffffffffffff1673ffffffffffffffffffffffffffffffffffffffff1681526020019081526020016000206000828254611fad9190612da8565b92505081905550816002600083815260200190815260200160002060006101000a81548173ffffffffffffffffffffffffffffffffffffffff021916908373ffffffffffffffffffffffffffffffffffffffff160217905550808273ffffffffffffffffffffffffffffffffffffffff16600073ffffffffffffffffffffffffffffffffffffffff167fddf252ad1be2c89b69c2b068fc378daa952ba7f163c4a11628f55a4df523b3ef60405160405180910390a461206e60008383611ca1565b5050565b6000808273ffffffffffffffffffffffffffffffffffffffff163b119050919050565b8280546120a190612f73565b90600052602060002090601f0160209004810192826120c3576000855561210a565b82601f106120dc57805160ff191683800117855561210a565b8280016001018555821561210a579182015b828111156121095782518255916020019190600101906120ee565b5b509050612117919061211b565b5090565b5b8082111561213457600081600090555060010161211c565b5090565b600061214b61214684612ce3565b612cbe565b90508281526020810184848401111561216357600080fd5b61216e848285612f31565b509392505050565b600061218961218484612d14565b612cbe565b9050828152602081018484840111156121a157600080fd5b6121ac848285612f31565b509392505050565b6000813590506121c381613462565b92915050565b6000813590506121d881613479565b92915050565b6000813590506121ed81613490565b92915050565b60008151905061220281613490565b92915050565b600082601f83011261221957600080fd5b8135612229848260208601612138565b91505092915050565b600082601f83011261224357600080fd5b8135612253848260208601612176565b91505092915050565b60008135905061226b816134a7565b92915050565b60006020828403121561228357600080fd5b6000612291848285016121b4565b91505092915050565b600080604083850312156122ad57600080fd5b60006122bb858286016121b4565b92505060206122cc858286016121b4565b9150509250929050565b6000806000606084860312156122eb57600080fd5b60006122f9868287016121b4565b935050602061230a868287016121b4565b925050604061231b8682870161225c565b9150509250925092565b6000806000806080858703121561233b57600080fd5b6000612349878288016121b4565b945050602061235a878288016121b4565b935050604061236b8782880161225c565b925050606085013567ffffffffffffffff81111561238857600080fd5b61239487828801612208565b91505092959194509250565b600080604083850312156123b357600080fd5b60006123c1858286016121b4565b92505060206123d2858286016121c9565b9150509250929050565b600080604083850312156123ef57600080fd5b60006123fd858286016121b4565b925050602061240e8582860161225c565b9150509250929050565b60006020828403121561242a57600080fd5b6000612438848285016121de565b91505092915050565b60006020828403121561245357600080fd5b6000612461848285016121f3565b91505092915050565b60006020828403121561247c57600080fd5b600082013567ffffffffffffffff81111561249657600080fd5b6124a284828501612232565b91505092915050565b600080600080608085870312156124c157600080fd5b600085013567ffffffffffffffff8111156124db57600080fd5b6124e787828801612232565b945050602085013567ffffffffffffffff81111561250457600080fd5b61251087828801612232565b935050604085013567ffffffffffffffff81111561252d57600080fd5b61253987828801612232565b925050606085013567ffffffffffffffff81111561255657600080fd5b61256287828801612232565b91505092959194509250565b600080600080600060a0868803121561258657600080fd5b600086013567ffffffffffffffff8111156125a057600080fd5b6125ac88828901612232565b955050602086013567ffffffffffffffff8111156125c957600080fd5b6125d588828901612232565b945050604086013567ffffffffffffffff8111156125f257600080fd5b6125fe88828901612232565b935050606086013567ffffffffffffffff81111561261b57600080fd5b61262788828901612232565b925050608086013567ffffffffffffffff81111561264457600080fd5b61265088828901612232565b9150509295509295909350565b60006020828403121561266f57600080fd5b600061267d8482850161225c565b91505092915050565b61268f81612ebd565b82525050565b61269e81612ecf565b82525050565b60006126af82612d5a565b6126b98185612d70565b93506126c9818560208601612f40565b6126d28161310c565b840191505092915050565b60006126e882612d5a565b6126f28185612d81565b9350612702818560208601612f40565b80840191505092915050565b600061271982612d65565b6127238185612d8c565b9350612733818560208601612f40565b61273c8161310c565b840191505092915050565b600061275282612d65565b61275c8185612d9d565b935061276c818560208601612f40565b80840191505092915050565b6000815461278581612f73565b61278f8186612d9d565b945060018216600081146127aa57600181146127bb576127ee565b60ff198316865281860193506127ee565b6127c485612d45565b60005b838110156127e6578154818901526001820191506020810190506127c7565b838801955050505b50505092915050565b6000612804603283612d8c565b915061280f8261311d565b604082019050919050565b6000612827602583612d8c565b91506128328261316c565b604082019050919050565b600061284a601c83612d8c565b9150612855826131bb565b602082019050919050565b600061286d602483612d8c565b9150612878826131e4565b604082019050919050565b6000612890601983612d8c565b915061289b82613233565b602082019050919050565b60006128b3600183612d9d565b91506128be8261325c565b600182019050919050565b60006128d6602983612d8c565b91506128e182613285565b604082019050919050565b60006128f9602e83612d8c565b9150612904826132d4565b604082019050919050565b600061291c603e83612d8c565b915061292782613323565b604082019050919050565b600061293f602083612d8c565b915061294a82613372565b602082019050919050565b6000612962601883612d8c565b915061296d8261339b565b602082019050919050565b6000612985602183612d8c565b9150612990826133c4565b604082019050919050565b60006129a8602e83612d8c565b91506129b382613413565b604082019050919050565b6129c781612f27565b82525050565b60006129d982856126dd565b91506129e58284612747565b91508190509392505050565b60006129fd82856126dd565b9150612a098284612778565b91508190509392505050565b6000612a2182846126dd565b9150612a2c826128a6565b915081905092915050565b6000612a438285612747565b9150612a4f8284612747565b91508190509392505050565b6000612a678285612778565b9150612a738284612747565b91508190509392505050565b6000602082019050612a946000830184612686565b92915050565b6000608082019050612aaf6000830187612686565b612abc6020830186612686565b612ac960408301856129be565b8181036060830152612adb81846126a4565b905095945050505050565b6000602082019050612afb6000830184612695565b92915050565b60006020820190508181036000830152612b1b818461270e565b905092915050565b60006020820190508181036000830152612b3c816127f7565b9050919050565b60006020820190508181036000830152612b5c8161281a565b9050919050565b60006020820190508181036000830152612b7c8161283d565b9050919050565b60006020820190508181036000830152612b9c81612860565b9050919050565b60006020820190508181036000830152612bbc81612883565b9050919050565b60006020820190508181036000830152612bdc816128c9565b9050919050565b60006020820190508181036000830152612bfc816128ec565b9050919050565b60006020820190508181036000830152612c1c8161290f565b9050919050565b60006020820190508181036000830152612c3c81612932565b9050919050565b60006020820190508181036000830152612c5c81612955565b9050919050565b60006020820190508181036000830152612c7c81612978565b9050919050565b60006020820190508181036000830152612c9c8161299b565b9050919050565b6000602082019050612cb860008301846129be565b92915050565b6000612cc8612cd9565b9050612cd48282612fa5565b919050565b6000604051905090565b600067ffffffffffffffff821115612cfe57612cfd6130dd565b5b612d078261310c565b9050602081019050919050565b600067ffffffffffffffff821115612d2f57612d2e6130dd565b5b612d388261310c565b9050602081019050919050565b60008190508160005260206000209050919050565b600081519050919050565b600081519050919050565b600082825260208201905092915050565b600081905092915050565b600082825260208201905092915050565b600081905092915050565b6000612db382612f27565b9150612dbe83612f27565b9250827fffffffffffffffffffffffffffffffffffffffffffffffffffffffffffffffff03821115612df357612df2613050565b5b828201905092915050565b6000612e0982612f27565b9150612e1483612f27565b925082612e2457612e2361307f565b5b828204905092915050565b6000612e3a82612f27565b9150612e4583612f27565b9250817fffffffffffffffffffffffffffffffffffffffffffffffffffffffffffffffff0483118215151615612e7e57612e7d613050565b5b828202905092915050565b6000612e9482612f27565b9150612e9f83612f27565b925082821015612eb257612eb1613050565b5b828203905092915050565b6000612ec882612f07565b9050919050565b60008115159050919050565b60007fffffffff0000000000000000000000000000000000000000000000000000000082169050919050565b600073ffffffffffffffffffffffffffffffffffffffff82169050919050565b6000819050919050565b82818337600083830152505050565b60005b83811015612f5e578082015181840152602081019050612f43565b83811115612f6d576000848401525b50505050565b60006002820490506001821680612f8b57607f821691505b60208210811415612f9f57612f9e6130ae565b5b50919050565b612fae8261310c565b810181811067ffffffffffffffff82111715612fcd57612fcc6130dd565b5b80604052505050565b6000612fe182612f27565b91507fffffffffffffffffffffffffffffffffffffffffffffffffffffffffffffffff82141561301457613013613050565b5b600182019050919050565b600061302a82612f27565b915061303583612f27565b9250826130455761304461307f565b5b828206905092915050565b7f4e487b7100000000000000000000000000000000000000000000000000000000600052601160045260246000fd5b7f4e487b7100000000000000000000000000000000000000000000000000000000600052601260045260246000fd5b7f4e487b7100000000000000000000000000000000000000000000000000000000600052602260045260246000fd5b7f4e487b7100000000000000000000000000000000000000000000000000000000600052604160045260246000fd5b6000601f19601f8301169050919050565b7f4552433732313a207472616e7366657220746f206e6f6e20455243373231526560008201527f63656976657220696d706c656d656e7465720000000000000000000000000000602082015250565b7f4552433732313a207472616e736665722066726f6d20696e636f72726563742060008201527f6f776e6572000000000000000000000000000000000000000000000000000000602082015250565b7f4552433732313a20746f6b656e20616c7265616479206d696e74656400000000600082015250565b7f4552433732313a207472616e7366657220746f20746865207a65726f2061646460008201527f7265737300000000000000000000000000000000000000000000000000000000602082015250565b7f4552433732313a20617070726f766520746f2063616c6c657200000000000000600082015250565b7f2000000000000000000000000000000000000000000000000000000000000000600082015250565b7f4552433732313a2061646472657373207a65726f206973206e6f74206120766160008201527f6c6964206f776e65720000000000000000000000000000000000000000000000602082015250565b7f45524337323155524953746f726167653a2055524920736574206f66206e6f6e60008201527f6578697374656e7420746f6b656e000000000000000000000000000000000000602082015250565b7f4552433732313a20617070726f76652063616c6c6572206973206e6f7420746f60008201527f6b656e206f776e6572206e6f7220617070726f76656420666f7220616c6c0000602082015250565b7f4552433732313a206d696e7420746f20746865207a65726f2061646472657373600082015250565b7f4552433732313a20696e76616c696420746f6b656e2049440000000000000000600082015250565b7f4552433732313a20617070726f76616c20746f2063757272656e74206f776e6560008201527f7200000000000000000000000000000000000000000000000000000000000000602082015250565b7f4552433732313a2063616c6c6572206973206e6f7420746f6b656e206f776e6560008201527f72206e6f7220617070726f766564000000000000000000000000000000000000602082015250565b61346b81612ebd565b811461347657600080fd5b50565b61348281612ecf565b811461348d57600080fd5b50565b61349981612edb565b81146134a457600080fd5b50565b6134b081612f27565b81146134bb57600080fd5b5056fe4142434445464748494a4b4c4d4e4f505152535455565758595a6162636465666768696a6b6c6d6e6f707172737475767778797a303132333435363738392b2fa2646970667358221220eb6a82f2163c848ec4a8a3f57ab4638d4a39a82e87422587f16baba9e7e92e6064736f6c63430008040033222c2261747472696275746573223a5b7b2274726169745f74797065223a224261636b67726f756e64222c2276616c7565223a223b666f6e742d66616d696c793a6d6f6e6f73706163653b666f6e742d73697a653a3170783b666f6e742d7374796c653a6974616c69633b666f6e742d7765696768743a3930303b7d726563747b66696c6c3a2e3a293a293a29222c2265787465726e616c5f75726c223a2268747470733a2f2f6769746875622e636f6d2f41736f6e43532f657069635f6e667473222c22696d616765223a22227d2c7b2274726169745f74797065223a22436f6c6f72222c2276616c7565223a223b66696c6c2d6f7061636974793a302e347d7376677b6261636b67726f756e642d636f6c6f723a3c73766720786d6c6e733d27687474703a2f2f7777772e77332e6f72672f323030302f737667272077696474683d2736303027206865696768743d27363030272076696577426f783d27302030203234203234273e3c7374796c653e746578747b66696c6c3a7b226465736372697074696f6e223a2254686174206973207468652074657374204e465420232720643d274d3130203139762d35683476356330202e35352e34352031203120316833632e3535203020312d2e343520312d31762d3768312e37632e34362030202e36382d2e35372e33332d2e38374c31322e363720332e36632d2e33382d2e33342d2e39362d2e33342d312e333420306c2d382e333620372e3533632d2e33342e332d2e31332e38372e33332e3837483576376330202e35352e34352031203120316833632e3535203020312d2e343520312d317a272f3e3c7265637420783d27302720793d2732322e38272077696474683d27323427206865696768743d27312e33272f3e3c7465787420783d27302e322720793d2732332e38273e23",
	"linkReferences": {},
	"deployedLinkReferences": {}
}