{
	"_format": "hh-sol-artifact-1",
	"contractName": "WavePortal",
	"sourceName": "contracts/WavePortal.sol",
	"abi": [
		{
			"inputs": [],
			"stateMutability": "payable",
			"type": "constructor"
		},
		{
			"anonymous": false,
			"inputs": [
				{
					"indexed": true,
					"internalType": "address",
					"name": "from",
					"type": "address"
				},
				{
					"indexed": false,
					"internalType": "string[]",
					"name": "messages",
					"type": "string[]"
				},
				{
					"indexed": false,
					"internalType": "uint256",
					"name": "likes",
					"type": "uint256"
				},
				{
					"indexed": false,
					"internalType": "uint256",
					"name": "timestamp",
					"type": "uint256"
				}
			],
			"name": "NewWave",
			"type": "event"
		},
		{
			"inputs": [
				{
					"internalType": "address",
					"name": "_likedUser",
					"type": "address"
				}
			],
			"name": "doLike",
			"outputs": [],
			"stateMutability": "nonpayable",
			"type": "function"
		},
		{
			"inputs": [
				{
					"internalType": "string",
					"name": "_message",
					"type": "string"
				}
			],
			"name": "doWave",
			"outputs": [],
			"stateMutability": "nonpayable",
			"type": "function"
		},
		{
			"inputs": [],
			"name": "getAllWaves",
			"outputs": [
				{
					"components": [
						{
							"internalType": "address",
							"name": "user",
							"type": "address"
						},
						{
							"internalType": "uint8",
							"name": "ative",
							"type": "uint8"
						},
						{
							"internalType": "string[]",
							"name": "messages",
							"type": "string[]"
						},
						{
							"internalType": "uint256",
							"name": "likes",
							"type": "uint256"
						},
						{
							"internalType": "uint256",
							"name": "timestamp",
							"type": "uint256"
						}
					],
					"internalType": "struct WavePortal.Wave[]",
					"name": "",
					"type": "tuple[]"
				}
			],
			"stateMutability": "view",
			"type": "function"
		}
	],
	"bytecode": "0x60806040526200004f6040518060400160405280600e81526020017f4e65772057617665506f7274616c000000000000000000000000000000000000815250620000b060201b62000d101760201c565b620000aa6040518060400160405280600481526020017f54696d650000000000000000000000000000000000000000000000000000000081525042610384620000999190620002e8565b6200015360201b62000da91760201c565b620003c5565b6200015081604051602401620000c7919062000274565b6040516020818303038152906040527f41304fac000000000000000000000000000000000000000000000000000000007bffffffffffffffffffffffffffffffffffffffffffffffffffffffff19166020820180517bffffffffffffffffffffffffffffffffffffffffffffffffffffffff8381831617835250505050620001f960201b60201c565b50565b620001f582826040516024016200016c92919062000298565b6040516020818303038152906040527f9710a9d0000000000000000000000000000000000000000000000000000000007bffffffffffffffffffffffffffffffffffffffffffffffffffffffff19166020820180517bffffffffffffffffffffffffffffffffffffffffffffffffffffffff8381831617835250505050620001f960201b60201c565b5050565b60008151905060006a636f6e736f6c652e6c6f679050602083016000808483855afa5050505050565b60006200022f82620002cc565b6200023b8185620002d7565b93506200024d8185602086016200034f565b6200025881620003b4565b840191505092915050565b6200026e8162000345565b82525050565b6000602082019050818103600083015262000290818462000222565b905092915050565b60006040820190508181036000830152620002b4818562000222565b9050620002c5602083018462000263565b9392505050565b600081519050919050565b600082825260208201905092915050565b6000620002f58262000345565b9150620003028362000345565b9250827fffffffffffffffffffffffffffffffffffffffffffffffffffffffffffffffff038211156200033a576200033962000385565b5b828201905092915050565b6000819050919050565b60005b838110156200036f57808201518184015260208101905062000352565b838111156200037f576000848401525b50505050565b7f4e487b7100000000000000000000000000000000000000000000000000000000600052601160045260246000fd5b6000601f19601f8301169050919050565b6118b680620003d56000396000f3fe608060405234801561001057600080fd5b50600436106100415760003560e01c80630ace0a25146100465780634a7149ed14610062578063bd43a9081461007e575b600080fd5b610060600480360381019061005b919061107b565b61009c565b005b61007c60048036038101906100779190611052565b610699565b005b610086610b51565b6040516100939190611454565b60405180910390f35b60008060003373ffffffffffffffffffffffffffffffffffffffff1673ffffffffffffffffffffffffffffffffffffffff16815260200190815260200160002054141561024257600180805490506100f49190611624565b6000803373ffffffffffffffffffffffffffffffffffffffff1673ffffffffffffffffffffffffffffffffffffffff16815260200190815260200160002081905550606060016040518060a001604052803373ffffffffffffffffffffffffffffffffffffffff168152602001600160ff1681526020018381526020016000815260200142815250908060018154018082558091505060019003906000526020600020906004020160009091909190915060008201518160000160006101000a81548173ffffffffffffffffffffffffffffffffffffffff021916908373ffffffffffffffffffffffffffffffffffffffff16021790555060208201518160000160146101000a81548160ff021916908360ff1602179055506040820151816001019080519060200190610229929190610e6e565b5060608201518160020155608082015181600301555050505b6001806000803373ffffffffffffffffffffffffffffffffffffffff1673ffffffffffffffffffffffffffffffffffffffff1681526020019081526020016000205461028e919061167a565b815481106102c5577f4e487b7100000000000000000000000000000000000000000000000000000000600052603260045260246000fd5b90600052602060002090600402016001018190806001815401808255809150506001900390600052602060002001600090919091909150908051906020019061030f929190610ece565b5060006001806000803373ffffffffffffffffffffffffffffffffffffffff1673ffffffffffffffffffffffffffffffffffffffff1681526020019081526020016000205461035e919061167a565b81548110610395577f4e487b7100000000000000000000000000000000000000000000000000000000600052603260045260246000fd5b90600052602060002090600402016040518060a00160405290816000820160009054906101000a900473ffffffffffffffffffffffffffffffffffffffff1673ffffffffffffffffffffffffffffffffffffffff1673ffffffffffffffffffffffffffffffffffffffff1681526020016000820160149054906101000a900460ff1660ff1660ff16815260200160018201805480602002602001604051908101604052809291908181526020016000905b828210156104f257838290600052602060002001805461046590611739565b80601f016020809104026020016040519081016040528092919081815260200182805461049190611739565b80156104de5780601f106104b3576101008083540402835291602001916104de565b820191906000526020600020905b8154815290600101906020018083116104c157829003601f168201915b505050505081526020019060010190610446565b505050508152602001600282015481526020016003820154815250509050806000015173ffffffffffffffffffffffffffffffffffffffff167fabee75da029b9a00dc0bf5b9491c0b93a2393ec8564febb4b93e4724cabf7b3082604001518360600151846080015160405161056a93929190611416565b60405180910390a26000601142446105829190611624565b61058c919061176b565b90506000811415610694576000655af3107a40009050478111156105e5576040517f08c379a00000000000000000000000000000000000000000000000000000000081526004016105dc906114e8565b60405180910390fd5b60003373ffffffffffffffffffffffffffffffffffffffff168260405161060b90611401565b60006040518083038185875af1925050503d8060008114610648576040519150601f19603f3d011682016040523d82523d6000602084013e61064d565b606091505b5050905080610691576040517f08c379a0000000000000000000000000000000000000000000000000000000008152600401610688906114c8565b60405180910390fd5b50505b505050565b60008060008373ffffffffffffffffffffffffffffffffffffffff1673ffffffffffffffffffffffffffffffffffffffff16815260200190815260200160002054141561083f57600180805490506106f19190611624565b6000808373ffffffffffffffffffffffffffffffffffffffff1673ffffffffffffffffffffffffffffffffffffffff16815260200190815260200160002081905550606060016040518060a001604052808473ffffffffffffffffffffffffffffffffffffffff168152602001600160ff1681526020018381526020016000815260200142815250908060018154018082558091505060019003906000526020600020906004020160009091909190915060008201518160000160006101000a81548173ffffffffffffffffffffffffffffffffffffffff021916908373ffffffffffffffffffffffffffffffffffffffff16021790555060208201518160000160146101000a81548160ff021916908360ff1602179055506040820151816001019080519060200190610826929190610e6e565b5060608201518160020155608082015181600301555050505b60018060016000808573ffffffffffffffffffffffffffffffffffffffff1673ffffffffffffffffffffffffffffffffffffffff1681526020019081526020016000205461088d919061167a565b815481106108c4577f4e487b7100000000000000000000000000000000000000000000000000000000600052603260045260246000fd5b906000526020600020906004020160020160008282546108e49190611624565b9250508190555060006001806000808573ffffffffffffffffffffffffffffffffffffffff1673ffffffffffffffffffffffffffffffffffffffff16815260200190815260200160002054610939919061167a565b81548110610970577f4e487b7100000000000000000000000000000000000000000000000000000000600052603260045260246000fd5b90600052602060002090600402016040518060a00160405290816000820160009054906101000a900473ffffffffffffffffffffffffffffffffffffffff1673ffffffffffffffffffffffffffffffffffffffff1673ffffffffffffffffffffffffffffffffffffffff1681526020016000820160149054906101000a900460ff1660ff1660ff16815260200160018201805480602002602001604051908101604052809291908181526020016000905b82821015610acd578382906000526020600020018054610a4090611739565b80601f0160208091040260200160405190810160405280929190818152602001828054610a6c90611739565b8015610ab95780601f10610a8e57610100808354040283529160200191610ab9565b820191906000526020600020905b815481529060010190602001808311610a9c57829003601f168201915b505050505081526020019060010190610a21565b505050508152602001600282015481526020016003820154815250509050806000015173ffffffffffffffffffffffffffffffffffffffff167fabee75da029b9a00dc0bf5b9491c0b93a2393ec8564febb4b93e4724cabf7b30826040015183606001518460800151604051610b4593929190611416565b60405180910390a25050565b60606001805480602002602001604051908101604052809291908181526020016000905b82821015610d0757838290600052602060002090600402016040518060a00160405290816000820160009054906101000a900473ffffffffffffffffffffffffffffffffffffffff1673ffffffffffffffffffffffffffffffffffffffff1673ffffffffffffffffffffffffffffffffffffffff1681526020016000820160149054906101000a900460ff1660ff1660ff16815260200160018201805480602002602001604051908101604052809291908181526020016000905b82821015610cdc578382906000526020600020018054610c4f90611739565b80601f0160208091040260200160405190810160405280929190818152602001828054610c7b90611739565b8015610cc85780601f10610c9d57610100808354040283529160200191610cc8565b820191906000526020600020905b815481529060010190602001808311610cab57829003601f168201915b505050505081526020019060010190610c30565b5050505081526020016002820154815260200160038201548152505081526020019060010190610b75565b50505050905090565b610da681604051602401610d249190611476565b6040516020818303038152906040527f41304fac000000000000000000000000000000000000000000000000000000007bffffffffffffffffffffffffffffffffffffffffffffffffffffffff19166020820180517bffffffffffffffffffffffffffffffffffffffffffffffffffffffff8381831617835250505050610e45565b50565b610e418282604051602401610dbf929190611498565b6040516020818303038152906040527f9710a9d0000000000000000000000000000000000000000000000000000000007bffffffffffffffffffffffffffffffffffffffffffffffffffffffff19166020820180517bffffffffffffffffffffffffffffffffffffffffffffffffffffffff8381831617835250505050610e45565b5050565b60008151905060006a636f6e736f6c652e6c6f679050602083016000808483855afa5050505050565b828054828255906000526020600020908101928215610ebd579160200282015b82811115610ebc578251829080519060200190610eac929190610ece565b5091602001919060010190610e8e565b5b509050610eca9190610f54565b5090565b828054610eda90611739565b90600052602060002090601f016020900481019282610efc5760008555610f43565b82601f10610f1557805160ff1916838001178555610f43565b82800160010185558215610f43579182015b82811115610f42578251825591602001919060010190610f27565b5b509050610f509190610f78565b5090565b5b80821115610f745760008181610f6b9190610f95565b50600101610f55565b5090565b5b80821115610f91576000816000905550600101610f79565b5090565b508054610fa190611739565b6000825580601f10610fb35750610fd2565b601f016020900490600052602060002090810190610fd19190610f78565b5b50565b6000610fe8610fe384611539565b611508565b90508281526020810184848401111561100057600080fd5b61100b8482856116f7565b509392505050565b60008135905061102281611869565b92915050565b600082601f83011261103957600080fd5b8135611049848260208601610fd5565b91505092915050565b60006020828403121561106457600080fd5b600061107284828501611013565b91505092915050565b60006020828403121561108d57600080fd5b600082013567ffffffffffffffff8111156110a757600080fd5b6110b384828501611028565b91505092915050565b60006110c88383611252565b905092915050565b60006110dc838361135e565b905092915050565b6110ed816116ae565b82525050565b60006110fe82611589565b61110881856115c4565b93508360208202850161111a85611569565b8060005b85811015611156578484038952815161113785826110bc565b9450611142836115aa565b925060208a0199505060018101905061111e565b50829750879550505050505092915050565b600061117382611589565b61117d81856115d5565b93508360208202850161118f85611569565b8060005b858110156111cb57848403895281516111ac85826110bc565b94506111b7836115aa565b925060208a01995050600181019050611193565b50829750879550505050505092915050565b60006111e882611594565b6111f281856115e6565b93508360208202850161120485611579565b8060005b85811015611240578484038952815161122185826110d0565b945061122c836115b7565b925060208a01995050600181019050611208565b50829750879550505050505092915050565b600061125d8261159f565b6112678185611602565b9350611277818560208601611706565b61128081611858565b840191505092915050565b60006112968261159f565b6112a08185611613565b93506112b0818560208601611706565b6112b981611858565b840191505092915050565b60006112d1601383611613565b91507f5472616e7366657220696e737563636566756c000000000000000000000000006000830152602082019050919050565b6000611311601283611613565b91507f4e6f7420656e6f7567682062616c616e636500000000000000000000000000006000830152602082019050919050565b60006113516000836115f7565b9150600082019050919050565b600060a08301600083015161137660008601826110e4565b50602083015161138960208601826113f2565b50604083015184820360408601526113a182826110f3565b91505060608301516113b660608601826113d4565b5060808301516113c960808601826113d4565b508091505092915050565b6113dd816116e0565b82525050565b6113ec816116e0565b82525050565b6113fb816116ea565b82525050565b600061140c82611344565b9150819050919050565b600060608201905081810360008301526114308186611168565b905061143f60208301856113e3565b61144c60408301846113e3565b949350505050565b6000602082019050818103600083015261146e81846111dd565b905092915050565b60006020820190508181036000830152611490818461128b565b905092915050565b600060408201905081810360008301526114b2818561128b565b90506114c160208301846113e3565b9392505050565b600060208201905081810360008301526114e1816112c4565b9050919050565b6000602082019050818103600083015261150181611304565b9050919050565b6000604051905081810181811067ffffffffffffffff8211171561152f5761152e611829565b5b8060405250919050565b600067ffffffffffffffff82111561155457611553611829565b5b601f19601f8301169050602081019050919050565b6000819050602082019050919050565b6000819050602082019050919050565b600081519050919050565b600081519050919050565b600081519050919050565b6000602082019050919050565b6000602082019050919050565b600082825260208201905092915050565b600082825260208201905092915050565b600082825260208201905092915050565b600081905092915050565b600082825260208201905092915050565b600082825260208201905092915050565b600061162f826116e0565b915061163a836116e0565b9250827fffffffffffffffffffffffffffffffffffffffffffffffffffffffffffffffff0382111561166f5761166e61179c565b5b828201905092915050565b6000611685826116e0565b9150611690836116e0565b9250828210156116a3576116a261179c565b5b828203905092915050565b60006116b9826116c0565b9050919050565b600073ffffffffffffffffffffffffffffffffffffffff82169050919050565b6000819050919050565b600060ff82169050919050565b82818337600083830152505050565b60005b83811015611724578082015181840152602081019050611709565b83811115611733576000848401525b50505050565b6000600282049050600182168061175157607f821691505b60208210811415611765576117646117fa565b5b50919050565b6000611776826116e0565b9150611781836116e0565b925082611791576117906117cb565b5b828206905092915050565b7f4e487b7100000000000000000000000000000000000000000000000000000000600052601160045260246000fd5b7f4e487b7100000000000000000000000000000000000000000000000000000000600052601260045260246000fd5b7f4e487b7100000000000000000000000000000000000000000000000000000000600052602260045260246000fd5b7f4e487b7100000000000000000000000000000000000000000000000000000000600052604160045260246000fd5b6000601f19601f8301169050919050565b611872816116ae565b811461187d57600080fd5b5056fea2646970667358221220e557144743cc30b9a69438c3c5eda84c383584fa0e9b73c1a7afc121efd9179864736f6c63430008000033",
	"linkReferences": {},
	"deployedLinkReferences": {}
}