{
	"_format": "hh-sol-artifact-1",
	"contractName": "WavePortal",
	"sourceName": "contracts/WavePortal.sol",
	"abi": [
		{
			"inputs": [],
			"stateMutability": "nonpayable",
			"type": "constructor"
		},
		{
			"inputs": [],
			"name": "getTotalWaves",
			"outputs": [
				{
					"internalType": "uint256",
					"name": "",
					"type": "uint256"
				}
			],
			"stateMutability": "view",
			"type": "function"
		},
		{
			"inputs": [],
			"name": "printAll",
			"outputs": [],
			"stateMutability": "view",
			"type": "function"
		},
		{
			"inputs": [],
			"name": "wave",
			"outputs": [],
			"stateMutability": "nonpayable",
			"type": "function"
		}
	],
	"bytecode": "0x608060405234801561001057600080fd5b5060007f64eeb8567ad496f244c24c274bb1c2f12e4b32f933bab58a456cb5a5864dc58d60001c90506100826040518060400160405280601c81526020017f56616d6f7320766572207365206e6f207175652064613a2027257327000000008152508261008860201b6103f31760201c565b50610235565b610126828260405160240161009e92919061019b565b6040516020818303038152906040527f9710a9d0000000000000000000000000000000000000000000000000000000007bffffffffffffffffffffffffffffffffffffffffffffffffffffffff19166020820180517bffffffffffffffffffffffffffffffffffffffffffffffffffffffff838183161783525050505061012a60201b60201c565b5050565b60008151905060006a636f6e736f6c652e6c6f679050602083016000808483855afa5050505050565b600061015e826101cb565b61016881856101d6565b93506101788185602086016101f1565b61018181610224565b840191505092915050565b610195816101e7565b82525050565b600060408201905081810360008301526101b58185610153565b90506101c4602083018461018c565b9392505050565b600081519050919050565b600082825260208201905092915050565b6000819050919050565b60005b8381101561020f5780820151818401526020810190506101f4565b8381111561021e576000848401525b50505050565b6000601f19601f8301169050919050565b6108dc806102446000396000f3fe608060405234801561001057600080fd5b50600436106100415760003560e01c80636fe15b44146100465780639a2cdc0814610050578063b9f41ba31461006e575b600080fd5b61004e610078565b005b6100586101d5565b6040516100659190610700565b60405180910390f35b610076610203565b005b60016002600082825461008b9190610737565b925050819055506000600160003373ffffffffffffffffffffffffffffffffffffffff1673ffffffffffffffffffffffffffffffffffffffff16815260200190815260200160002054141561013e576000339080600181540180825580915050600190039060005260206000200160009091909190916101000a81548173ffffffffffffffffffffffffffffffffffffffff021916908373ffffffffffffffffffffffffffffffffffffffff1602179055505b60018060003373ffffffffffffffffffffffffffffffffffffffff1673ffffffffffffffffffffffffffffffffffffffff168152602001908152602001600020600082825461018d9190610737565b925050819055506101d36040518060400160405280601281526020017f2573206465752074636861757a696e686f2100000000000000000000000000008152503361048f565b565b60006101fb604051806060016040528060218152602001610886602191396002546103f3565b600254905090565b60005b6000805490508110156103f05760006040518060400160405280600581526020017f7463686175000000000000000000000000000000000000000000000000000000815250905060006001600080858154811061028c577f4e487b7100000000000000000000000000000000000000000000000000000000600052603260045260246000fd5b9060005260206000200160009054906101000a900473ffffffffffffffffffffffffffffffffffffffff1673ffffffffffffffffffffffffffffffffffffffff1673ffffffffffffffffffffffffffffffffffffffff1681526020019081526020016000205490506001811115610336576040518060400160405280600b81526020017f74636861757a696e686f7300000000000000000000000000000000000000000081525091505b6103db6040518060400160405280601b81526020017f5573756172696f2027257327206a612064657520272564272025730000000000815250600085815481106103a9577f4e487b7100000000000000000000000000000000000000000000000000000000600052603260045260246000fd5b9060005260206000200160009054906101000a900473ffffffffffffffffffffffffffffffffffffffff16838561052b565b505080806103e8906107fc565b915050610206565b50565b61048b82826040516024016104099291906106d0565b6040516020818303038152906040527f9710a9d0000000000000000000000000000000000000000000000000000000007bffffffffffffffffffffffffffffffffffffffffffffffffffffffff19166020820180517bffffffffffffffffffffffffffffffffffffffffffffffffffffffff83818316178352505050506105cd565b5050565b61052782826040516024016104a592919061064d565b6040516020818303038152906040527f319af333000000000000000000000000000000000000000000000000000000007bffffffffffffffffffffffffffffffffffffffffffffffffffffffff19166020820180517bffffffffffffffffffffffffffffffffffffffffffffffffffffffff83818316178352505050506105cd565b5050565b6105c784848484604051602401610545949392919061067d565b6040516020818303038152906040527f4c55f234000000000000000000000000000000000000000000000000000000007bffffffffffffffffffffffffffffffffffffffffffffffffffffffff19166020820180517bffffffffffffffffffffffffffffffffffffffffffffffffffffffff83818316178352505050506105cd565b50505050565b60008151905060006a636f6e736f6c652e6c6f679050602083016000808483855afa5050505050565b6105ff8161078d565b82525050565b60006106108261071b565b61061a8185610726565b935061062a8185602086016107c9565b61063381610874565b840191505092915050565b610647816107bf565b82525050565b600060408201905081810360008301526106678185610605565b905061067660208301846105f6565b9392505050565b600060808201905081810360008301526106978187610605565b90506106a660208301866105f6565b6106b3604083018561063e565b81810360608301526106c58184610605565b905095945050505050565b600060408201905081810360008301526106ea8185610605565b90506106f9602083018461063e565b9392505050565b6000602082019050610715600083018461063e565b92915050565b600081519050919050565b600082825260208201905092915050565b6000610742826107bf565b915061074d836107bf565b9250827fffffffffffffffffffffffffffffffffffffffffffffffffffffffffffffffff0382111561078257610781610845565b5b828201905092915050565b60006107988261079f565b9050919050565b600073ffffffffffffffffffffffffffffffffffffffff82169050919050565b6000819050919050565b60005b838110156107e75780820151818401526020810190506107cc565b838111156107f6576000848401525b50505050565b6000610807826107bf565b91507fffffffffffffffffffffffffffffffffffffffffffffffffffffffffffffffff82141561083a57610839610845565b5b600182019050919050565b7f4e487b7100000000000000000000000000000000000000000000000000000000600052601160045260246000fd5b6000601f19601f830116905091905056fe54656d6f7320756d20746f74616c2064652025642074636861757a696e686f7321a2646970667358221220adec1154fbfe3c8c0bf488bcba0e61ba50fc69c67b3ad46747880c1ea52ab59064736f6c63430008000033",
	"linkReferences": {},
	"deployedLinkReferences": {}
}